{
  "_format": "hh-sol-artifact-1",
  "contractName": "EthErc20FastBridge",
  "sourceName": "contracts/EthErc20FastBridge.sol",
  "abi": [
    {
      "anonymous": false,
      "inputs": [
        {
          "indexed": false,
          "internalType": "address",
          "name": "token",
          "type": "address"
        }
      ],
      "name": "AddTokenToWhitelist",
      "type": "event"
    },
    {
      "anonymous": false,
      "inputs": [
        {
          "indexed": false,
          "internalType": "address",
          "name": "previousAdmin",
          "type": "address"
        },
        {
          "indexed": false,
          "internalType": "address",
          "name": "newAdmin",
          "type": "address"
        }
      ],
      "name": "AdminChanged",
      "type": "event"
    },
    {
      "anonymous": false,
      "inputs": [
        {
          "indexed": true,
          "internalType": "address",
          "name": "beacon",
          "type": "address"
        }
      ],
      "name": "BeaconUpgraded",
      "type": "event"
    },
    {
      "anonymous": false,
      "inputs": [
        {
          "indexed": false,
          "internalType": "uint8",
          "name": "version",
          "type": "uint8"
        }
      ],
      "name": "Initialized",
      "type": "event"
    },
    {
      "anonymous": false,
      "inputs": [
        {
          "indexed": false,
          "internalType": "address",
          "name": "account",
          "type": "address"
        }
      ],
      "name": "Paused",
      "type": "event"
    },
    {
      "anonymous": false,
      "inputs": [
        {
          "indexed": false,
          "internalType": "address",
          "name": "token",
          "type": "address"
        }
      ],
      "name": "RemoveTokenFromWhitelist",
      "type": "event"
    },
    {
      "anonymous": false,
      "inputs": [
        {
          "indexed": true,
          "internalType": "bytes32",
          "name": "role",
          "type": "bytes32"
        },
        {
          "indexed": true,
          "internalType": "bytes32",
          "name": "previousAdminRole",
          "type": "bytes32"
        },
        {
          "indexed": true,
          "internalType": "bytes32",
          "name": "newAdminRole",
          "type": "bytes32"
        }
      ],
      "name": "RoleAdminChanged",
      "type": "event"
    },
    {
      "anonymous": false,
      "inputs": [
        {
          "indexed": true,
          "internalType": "bytes32",
          "name": "role",
          "type": "bytes32"
        },
        {
          "indexed": true,
          "internalType": "address",
          "name": "account",
          "type": "address"
        },
        {
          "indexed": true,
          "internalType": "address",
          "name": "sender",
          "type": "address"
        }
      ],
      "name": "RoleGranted",
      "type": "event"
    },
    {
      "anonymous": false,
      "inputs": [
        {
          "indexed": true,
          "internalType": "bytes32",
          "name": "role",
          "type": "bytes32"
        },
        {
          "indexed": true,
          "internalType": "address",
          "name": "account",
          "type": "address"
        },
        {
          "indexed": true,
          "internalType": "address",
          "name": "sender",
          "type": "address"
        }
      ],
      "name": "RoleRevoked",
      "type": "event"
    },
    {
      "anonymous": false,
      "inputs": [
        {
          "indexed": false,
          "internalType": "address[]",
          "name": "_tokens",
          "type": "address[]"
        },
        {
          "indexed": false,
          "internalType": "bool[]",
          "name": "_states",
          "type": "bool[]"
        }
      ],
      "name": "SetTokens",
      "type": "event"
    },
    {
      "anonymous": false,
      "inputs": [
        {
          "indexed": true,
          "internalType": "uint256",
          "name": "_nonce",
          "type": "uint256"
        },
        {
          "indexed": false,
          "internalType": "address",
          "name": "_relayer",
          "type": "address"
        },
        {
          "indexed": false,
          "internalType": "address",
          "name": "_token",
          "type": "address"
        },
        {
          "indexed": false,
          "internalType": "address",
          "name": "_recipient",
          "type": "address"
        },
        {
          "indexed": false,
          "internalType": "uint256",
          "name": "_amount",
          "type": "uint256"
        },
        {
          "indexed": false,
          "internalType": "string",
          "name": "_unlock_recipient",
          "type": "string"
        },
        {
          "indexed": true,
          "internalType": "bytes32",
          "name": "_transfer_id",
          "type": "bytes32"
        }
      ],
      "name": "TransferTokens",
      "type": "event"
    },
    {
      "anonymous": false,
      "inputs": [
        {
          "indexed": false,
          "internalType": "address",
          "name": "account",
          "type": "address"
        }
      ],
      "name": "Unpaused",
      "type": "event"
    },
    {
      "anonymous": false,
      "inputs": [
        {
          "indexed": true,
          "internalType": "address",
          "name": "implementation",
          "type": "address"
        }
      ],
      "name": "Upgraded",
      "type": "event"
    },
    {
      "inputs": [],
      "name": "DEFAULT_ADMIN_ROLE",
      "outputs": [
        {
          "internalType": "bytes32",
          "name": "",
          "type": "bytes32"
        }
      ],
      "stateMutability": "view",
      "type": "function"
    },
    {
      "inputs": [],
      "name": "PAUSABLE_ADMIN_ROLE",
      "outputs": [
        {
          "internalType": "bytes32",
          "name": "",
          "type": "bytes32"
        }
      ],
      "stateMutability": "view",
      "type": "function"
    },
    {
      "inputs": [],
      "name": "UNPAUSABLE_ADMIN_ROLE",
      "outputs": [
        {
          "internalType": "bytes32",
          "name": "",
          "type": "bytes32"
        }
      ],
      "stateMutability": "view",
      "type": "function"
    },
    {
      "inputs": [],
      "name": "WHITELISTING_TOKENS_ADMIN_ROLE",
      "outputs": [
        {
          "internalType": "bytes32",
          "name": "",
          "type": "bytes32"
        }
      ],
      "stateMutability": "view",
      "type": "function"
    },
    {
      "inputs": [
        {
          "internalType": "address",
          "name": "_token",
          "type": "address"
        }
      ],
      "name": "addTokenToWhitelist",
      "outputs": [],
      "stateMutability": "nonpayable",
      "type": "function"
    },
    {
      "inputs": [
        {
          "internalType": "bytes32",
          "name": "role",
          "type": "bytes32"
        }
      ],
      "name": "getRoleAdmin",
      "outputs": [
        {
          "internalType": "bytes32",
          "name": "",
          "type": "bytes32"
        }
      ],
      "stateMutability": "view",
      "type": "function"
    },
    {
      "inputs": [
        {
          "internalType": "bytes32",
          "name": "role",
          "type": "bytes32"
        },
        {
          "internalType": "address",
          "name": "account",
          "type": "address"
        }
      ],
      "name": "grantRole",
      "outputs": [],
      "stateMutability": "nonpayable",
      "type": "function"
    },
    {
      "inputs": [
        {
          "internalType": "bytes32",
          "name": "role",
          "type": "bytes32"
        },
        {
          "internalType": "address",
          "name": "account",
          "type": "address"
        }
      ],
      "name": "hasRole",
      "outputs": [
        {
          "internalType": "bool",
          "name": "",
          "type": "bool"
        }
      ],
      "stateMutability": "view",
      "type": "function"
    },
    {
      "inputs": [
        {
          "internalType": "address[]",
          "name": "_tokens",
          "type": "address[]"
        },
        {
          "internalType": "bool[]",
          "name": "_states",
          "type": "bool[]"
        }
      ],
      "name": "initialize",
      "outputs": [],
      "stateMutability": "nonpayable",
      "type": "function"
    },
    {
      "inputs": [
        {
          "internalType": "address",
          "name": "_token",
          "type": "address"
        }
      ],
      "name": "isTokenInWhitelist",
      "outputs": [
        {
          "internalType": "bool",
          "name": "",
          "type": "bool"
        }
      ],
      "stateMutability": "view",
      "type": "function"
    },
    {
      "inputs": [],
      "name": "pause",
      "outputs": [],
      "stateMutability": "nonpayable",
      "type": "function"
    },
    {
      "inputs": [],
      "name": "paused",
      "outputs": [
        {
          "internalType": "bool",
          "name": "",
          "type": "bool"
        }
      ],
      "stateMutability": "view",
      "type": "function"
    },
    {
      "inputs": [
        {
          "internalType": "bytes32",
          "name": "",
          "type": "bytes32"
        }
      ],
      "name": "processedHashes",
      "outputs": [
        {
          "internalType": "bool",
          "name": "",
          "type": "bool"
        }
      ],
      "stateMutability": "view",
      "type": "function"
    },
    {
      "inputs": [],
      "name": "proxiableUUID",
      "outputs": [
        {
          "internalType": "bytes32",
          "name": "",
          "type": "bytes32"
        }
      ],
      "stateMutability": "view",
      "type": "function"
    },
    {
      "inputs": [
        {
          "internalType": "address",
          "name": "_token",
          "type": "address"
        }
      ],
      "name": "removeTokenFromWhitelist",
      "outputs": [],
      "stateMutability": "nonpayable",
      "type": "function"
    },
    {
      "inputs": [
        {
          "internalType": "bytes32",
          "name": "role",
          "type": "bytes32"
        },
        {
          "internalType": "address",
          "name": "account",
          "type": "address"
        }
      ],
      "name": "renounceRole",
      "outputs": [],
      "stateMutability": "nonpayable",
      "type": "function"
    },
    {
      "inputs": [
        {
          "internalType": "bytes32",
          "name": "role",
          "type": "bytes32"
        },
        {
          "internalType": "address",
          "name": "account",
          "type": "address"
        }
      ],
      "name": "revokeRole",
      "outputs": [],
      "stateMutability": "nonpayable",
      "type": "function"
    },
    {
      "inputs": [
        {
          "internalType": "address[]",
          "name": "_tokens",
          "type": "address[]"
        },
        {
          "internalType": "bool[]",
          "name": "_states",
          "type": "bool[]"
        }
      ],
      "name": "setWhitelistedTokens",
      "outputs": [],
      "stateMutability": "nonpayable",
      "type": "function"
    },
    {
      "inputs": [
        {
          "internalType": "bytes4",
          "name": "interfaceId",
          "type": "bytes4"
        }
      ],
      "name": "supportsInterface",
      "outputs": [
        {
          "internalType": "bool",
          "name": "",
          "type": "bool"
        }
      ],
      "stateMutability": "view",
      "type": "function"
    },
    {
      "inputs": [
        {
          "internalType": "address",
          "name": "_token",
          "type": "address"
        },
        {
          "internalType": "address payable",
          "name": "_recipient",
          "type": "address"
        },
        {
          "internalType": "uint256",
          "name": "_nonce",
          "type": "uint256"
        },
        {
          "internalType": "uint256",
          "name": "_amount",
          "type": "uint256"
        },
        {
          "internalType": "string",
          "name": "_unlock_recipient",
          "type": "string"
        },
        {
          "internalType": "uint256",
          "name": "_valid_till_block_height",
          "type": "uint256"
        }
      ],
      "name": "transferTokens",
      "outputs": [],
      "stateMutability": "payable",
      "type": "function"
    },
    {
      "inputs": [],
      "name": "unPause",
      "outputs": [],
      "stateMutability": "nonpayable",
      "type": "function"
    },
    {
      "inputs": [
        {
          "internalType": "address",
          "name": "newImplementation",
          "type": "address"
        }
      ],
      "name": "upgradeTo",
      "outputs": [],
      "stateMutability": "nonpayable",
      "type": "function"
    },
    {
      "inputs": [
        {
          "internalType": "address",
          "name": "newImplementation",
          "type": "address"
        },
        {
          "internalType": "bytes",
          "name": "data",
          "type": "bytes"
        }
      ],
      "name": "upgradeToAndCall",
      "outputs": [],
      "stateMutability": "payable",
      "type": "function"
    },
    {
      "inputs": [
        {
          "internalType": "address",
          "name": "",
          "type": "address"
        }
      ],
      "name": "whitelistedTokens",
      "outputs": [
        {
          "internalType": "bool",
          "name": "",
          "type": "bool"
        }
      ],
      "stateMutability": "view",
      "type": "function"
    },
    {
      "inputs": [
        {
          "internalType": "address",
          "name": "_token",
          "type": "address"
        }
      ],
      "name": "withdrawStuckTokens",
      "outputs": [],
      "stateMutability": "nonpayable",
      "type": "function"
    }
  ],
  "bytecode": "0x60a06040523060805234801561001457600080fd5b5060805161244a61004c60003960008181610a3f01528181610a7f01528181610b1f01528181610b5f0152610bee015261244a6000f3fe6080604052600436106101665760003560e01c80635c975abb116100d1578063c571967b1161008a578063d84c1b3811610064578063d84c1b3814610452578063d929780714610472578063daf9c21014610492578063f7b188a5146104c357600080fd5b8063c571967b146103f2578063cb96372814610412578063d547741f1461043257600080fd5b80635c975abb146103345780638456cb591461034c57806386d29552146103615780638a6df3821461038357806391d14854146103bd578063a217fddf146103dd57600080fd5b80632f2ff15d116101235780632f2ff15d1461028c578063306275be146102ac57806336568abe146102cc5780633659cfe6146102ec5780634f1ef2861461030c57806352d1902d1461031f57600080fd5b806301ffc9a71461016b57806307d9c534146101a05780630cd99de8146101d15780631a46605e14610213578063248a9ca3146102475780632ecf4d5514610277575b600080fd5b34801561017757600080fd5b5061018b610186366004611ca4565b6104d8565b60405190151581526020015b60405180910390f35b3480156101ac57600080fd5b5061018b6101bb366004611cce565b61012e6020526000908152604090205460ff1681565b3480156101dd57600080fd5b506102057f1e1db0d9c63b4a23ec134ff71a2f56610c32f638cbff81e96e14734c4daf0b4d81565b604051908152602001610197565b34801561021f57600080fd5b506102057fc804e2aea55839c8bd1fe2c628730bd5ddeb93faf1add0fe7de81d2d3876f60c81565b34801561025357600080fd5b50610205610262366004611cce565b600090815260c9602052604090206001015490565b61028a610285366004611cfc565b61050f565b005b34801561029857600080fd5b5061028a6102a7366004611db1565b6108b8565b3480156102b857600080fd5b5061028a6102c7366004611de1565b6108e2565b3480156102d857600080fd5b5061028a6102e7366004611db1565b6109b6565b3480156102f857600080fd5b5061028a610307366004611de1565b610a34565b61028a61031a366004611e45565b610b14565b34801561032b57600080fd5b50610205610be1565b34801561034057600080fd5b5060fb5460ff1661018b565b34801561035857600080fd5b5061028a610c94565b34801561036d57600080fd5b506102056000805160206123f783398151915281565b34801561038f57600080fd5b5061018b61039e366004611de1565b6001600160a01b0316600090815261012d602052604090205460ff1690565b3480156103c957600080fd5b5061018b6103d8366004611db1565b610cc6565b3480156103e957600080fd5b50610205600081565b3480156103fe57600080fd5b5061028a61040d366004611f93565b610cf1565b34801561041e57600080fd5b5061028a61042d366004611de1565b610e11565b34801561043e57600080fd5b5061028a61044d366004611db1565b610e9d565b34801561045e57600080fd5b5061028a61046d366004611de1565b610ec2565b34801561047e57600080fd5b5061028a61048d366004611f93565b610f99565b34801561049e57600080fd5b5061018b6104ad366004611de1565b61012d6020526000908152604090205460ff1681565b3480156104cf57600080fd5b5061028a611134565b60006001600160e01b03198216637965db0b60e01b148061050957506301ffc9a760e01b6001600160e01b03198316145b92915050565b610517611166565b6001600160a01b038716600090815261012d6020526040902054879060ff166105805760405162461bcd60e51b8152602060048201526016602482015275546f6b656e206e6f742077686974656c69737465642160501b60448201526064015b60405180910390fd5b8143106105c65760405162461bcd60e51b815260206004820152601460248201527324b73b30b634b210313637b1b590373ab6b132b960611b6044820152606401610577565b6001600160a01b038716158015906105e757506001600160a01b0387163314155b6106335760405162461bcd60e51b815260206004820152601860248201527f57726f6e6720726563697069656e742070726f766964656400000000000000006044820152606401610577565b846106785760405162461bcd60e51b815260206004820152601560248201527415dc9bdb99c8185b5bdd5b9d081c1c9bdd9a591959605a1b6044820152606401610577565b6040516bffffffffffffffffffffffff1960608a811b8216602084015289901b166034820152604881018790526068810186905260009060880160408051601f198184030181529181528151602092830120600081815261012e90935291205490915060ff16156107405760405162461bcd60e51b815260206004820152602c60248201527f54686973207472616e73616374696f6e2068617320616c72656164792062656560448201526b6e2070726f6365737365642160a01b6064820152608401610577565b600081815261012e60205260409020805460ff191660011790556001600160a01b0389166107f3573486146107b75760405162461bcd60e51b815260206004820152601c60248201527f57726f6e672065746865727320616d6f756e742070726f7669646564000000006044820152606401610577565b6040516001600160a01b0389169087156108fc029088906000818181858888f193505050501580156107ed573d6000803e3d6000fd5b5061086a565b34156108525760405162461bcd60e51b815260206004820152602860248201527f457468657273206e6f7420616363657074656420666f72204552432d3230207460448201526772616e736665727360c01b6064820152608401610577565b886108686001600160a01b038216338b8a6111ae565b505b80877fed54b7aec45dbd5851e5b6484f6fbc0e5990e127a8f1eea7a1e113eba6bfacf9338c8c8b8b8b6040516108a596959493929190612055565b60405180910390a3505050505050505050565b600082815260c960205260409020600101546108d38161121f565b6108dd8383611229565b505050565b6000805160206123f78339815191526108fa8161121f565b6001600160a01b038216600090815261012d602052604090205460ff1661095c5760405162461bcd60e51b8152602060048201526016602482015275546f6b656e206e6f742077686974656c69737465642160501b6044820152606401610577565b6001600160a01b038216600081815261012d6020908152604091829020805460ff1916905590519182527fd63a6c09205e963ed38724b08c22ff46ffa1f4146dbdba046f7430f7b778fa0291015b60405180910390a15050565b6001600160a01b0381163314610a265760405162461bcd60e51b815260206004820152602f60248201527f416363657373436f6e74726f6c3a2063616e206f6e6c792072656e6f756e636560448201526e103937b632b9903337b91039b2b63360891b6064820152608401610577565b610a3082826112af565b5050565b306001600160a01b037f0000000000000000000000000000000000000000000000000000000000000000161415610a7d5760405162461bcd60e51b8152600401610577906120b2565b7f00000000000000000000000000000000000000000000000000000000000000006001600160a01b0316610ac66000805160206123d7833981519152546001600160a01b031690565b6001600160a01b031614610aec5760405162461bcd60e51b8152600401610577906120fe565b610af581611316565b60408051600080825260208201909252610b1191839190611321565b50565b306001600160a01b037f0000000000000000000000000000000000000000000000000000000000000000161415610b5d5760405162461bcd60e51b8152600401610577906120b2565b7f00000000000000000000000000000000000000000000000000000000000000006001600160a01b0316610ba66000805160206123d7833981519152546001600160a01b031690565b6001600160a01b031614610bcc5760405162461bcd60e51b8152600401610577906120fe565b610bd582611316565b610a3082826001611321565b6000306001600160a01b037f00000000000000000000000000000000000000000000000000000000000000001614610c815760405162461bcd60e51b815260206004820152603860248201527f555550535570677261646561626c653a206d757374206e6f742062652063616c60448201527f6c6564207468726f7567682064656c656761746563616c6c00000000000000006064820152608401610577565b506000805160206123d783398151915290565b7f1e1db0d9c63b4a23ec134ff71a2f56610c32f638cbff81e96e14734c4daf0b4d610cbe8161121f565b610b1161148c565b600091825260c9602090815260408084206001600160a01b0393909316845291905290205460ff1690565b6000805160206123f7833981519152610d098161121f565b8151835114610d515760405162461bcd60e51b8152602060048201526014602482015273105c9c985e5cc81b5d5cdd08189948195c5d585b60621b6044820152606401610577565b60005b8351811015610dd257828181518110610d6f57610d6f61214a565b602002602001015161012d6000868481518110610d8e57610d8e61214a565b6020908102919091018101516001600160a01b03168252810191909152604001600020805460ff191691151591909117905580610dca81612176565b915050610d54565b507f8569737c05ca3684284dc2d7a44ce0965e01af77b24e61bbd8df66413c4c33218383604051610e04929190612191565b60405180910390a1505050565b6000610e1c8161121f565b6040516370a0823160e01b815230600482015282906108dd9033906001600160a01b038416906370a0823190602401602060405180830381865afa158015610e68573d6000803e3d6000fd5b505050506040513d601f19601f82011682018060405250810190610e8c9190612217565b6001600160a01b03841691906114e6565b600082815260c96020526040902060010154610eb88161121f565b6108dd83836112af565b6000805160206123f7833981519152610eda8161121f565b6001600160a01b038216600090815261012d602052604090205460ff1615610f445760405162461bcd60e51b815260206004820152601a60248201527f546f6b656e20616c72656164792077686974656c6973746564210000000000006044820152606401610577565b6001600160a01b038216600081815261012d6020908152604091829020805460ff1916600117905590519182527f2b1c15aae705d7cadc13bba9b1f7cd64654a4b66d5a06081f27ddeb1adb2424591016109aa565b600054610100900460ff1615808015610fb95750600054600160ff909116105b80610fd35750303b158015610fd3575060005460ff166001145b6110365760405162461bcd60e51b815260206004820152602e60248201527f496e697469616c697a61626c653a20636f6e747261637420697320616c72656160448201526d191e481a5b9a5d1a585b1a5e995960921b6064820152608401610577565b6000805460ff191660011790558015611059576000805461ff0019166101001790555b611061611516565b611069611545565b611071611545565b61107c60003361156c565b6110946000805160206123f78339815191523361156c565b6110be7f1e1db0d9c63b4a23ec134ff71a2f56610c32f638cbff81e96e14734c4daf0b4d3361156c565b6110e87fc804e2aea55839c8bd1fe2c628730bd5ddeb93faf1add0fe7de81d2d3876f60c3361156c565b6110f28383610cf1565b80156108dd576000805461ff0019169055604051600181527f7f26b83ff96e1f2b6a682f133852f6798a09c465da95921460cefb384740249890602001610e04565b7fc804e2aea55839c8bd1fe2c628730bd5ddeb93faf1add0fe7de81d2d3876f60c61115e8161121f565b610b11611576565b60fb5460ff16156111ac5760405162461bcd60e51b815260206004820152601060248201526f14185d5cd8589b194e881c185d5cd95960821b6044820152606401610577565b565b6040516001600160a01b03808516602483015283166044820152606481018290526112199085906323b872dd60e01b906084015b60408051601f198184030181529190526020810180516001600160e01b03166001600160e01b0319909316929092179091526115af565b50505050565b610b118133611681565b6112338282610cc6565b610a3057600082815260c9602090815260408083206001600160a01b03851684529091529020805460ff1916600117905561126b3390565b6001600160a01b0316816001600160a01b0316837f2f8788117e7eff1d82e926ec794901d17c78024a50270940304540a733656f0d60405160405180910390a45050565b6112b98282610cc6565b15610a3057600082815260c9602090815260408083206001600160a01b0385168085529252808320805460ff1916905551339285917ff6391f5c32d9c69d2a47ea670b442974b53935d1edc7fd64eb21e047a839171b9190a45050565b6000610a308161121f565b7f4910fdfa16fed3260ed0e7147f7cc6da11a60208b5b9406d12a635614ffd91435460ff1615611354576108dd836116da565b826001600160a01b03166352d1902d6040518163ffffffff1660e01b8152600401602060405180830381865afa9250505080156113ae575060408051601f3d908101601f191682019092526113ab91810190612217565b60015b6114115760405162461bcd60e51b815260206004820152602e60248201527f45524331393637557067726164653a206e657720696d706c656d656e7461746960448201526d6f6e206973206e6f74205555505360901b6064820152608401610577565b6000805160206123d783398151915281146114805760405162461bcd60e51b815260206004820152602960248201527f45524331393637557067726164653a20756e737570706f727465642070726f786044820152681a58589b195555525160ba1b6064820152608401610577565b506108dd838383611776565b611494611166565b60fb805460ff191660011790557f62e78cea01bee320cd4e420270b5ea74000d11b0c9f74754ebdbfc544b05a2586114c93390565b6040516001600160a01b03909116815260200160405180910390a1565b6040516001600160a01b0383166024820152604481018290526108dd90849063a9059cbb60e01b906064016111e2565b600054610100900460ff1661153d5760405162461bcd60e51b815260040161057790612230565b6111ac61179b565b600054610100900460ff166111ac5760405162461bcd60e51b815260040161057790612230565b610a308282611229565b61157e6117ce565b60fb805460ff191690557f5db9ee0a495bf2e6ff9c91a7834c1ba4fdd244a5e8aa4e537bd38aeae4b073aa336114c9565b6000611604826040518060400160405280602081526020017f5361666545524332303a206c6f772d6c6576656c2063616c6c206661696c6564815250856001600160a01b03166118179092919063ffffffff16565b8051909150156108dd5780806020019051810190611622919061227b565b6108dd5760405162461bcd60e51b815260206004820152602a60248201527f5361666545524332303a204552433230206f7065726174696f6e20646964206e6044820152691bdd081cdd58d8d9595960b21b6064820152608401610577565b61168b8282610cc6565b610a305761169881611830565b6116a3836020611842565b6040516020016116b49291906122c4565b60408051601f198184030181529082905262461bcd60e51b825261057791600401612339565b6001600160a01b0381163b6117475760405162461bcd60e51b815260206004820152602d60248201527f455243313936373a206e657720696d706c656d656e746174696f6e206973206e60448201526c1bdd08184818dbdb9d1c9858dd609a1b6064820152608401610577565b6000805160206123d783398151915280546001600160a01b0319166001600160a01b0392909216919091179055565b61177f836119de565b60008251118061178c5750805b156108dd576112198383611a1e565b600054610100900460ff166117c25760405162461bcd60e51b815260040161057790612230565b60fb805460ff19169055565b60fb5460ff166111ac5760405162461bcd60e51b815260206004820152601460248201527314185d5cd8589b194e881b9bdd081c185d5cd95960621b6044820152606401610577565b60606118268484600085611b12565b90505b9392505050565b60606105096001600160a01b03831660145b6060600061185183600261236c565b61185c90600261238b565b67ffffffffffffffff81111561187457611874611dfe565b6040519080825280601f01601f19166020018201604052801561189e576020820181803683370190505b509050600360fc1b816000815181106118b9576118b961214a565b60200101906001600160f81b031916908160001a905350600f60fb1b816001815181106118e8576118e861214a565b60200101906001600160f81b031916908160001a905350600061190c84600261236c565b61191790600161238b565b90505b600181111561198f576f181899199a1a9b1b9c1cb0b131b232b360811b85600f166010811061194b5761194b61214a565b1a60f81b8282815181106119615761196161214a565b60200101906001600160f81b031916908160001a90535060049490941c93611988816123a3565b905061191a565b5083156118295760405162461bcd60e51b815260206004820181905260248201527f537472696e67733a20686578206c656e67746820696e73756666696369656e746044820152606401610577565b6119e7816116da565b6040516001600160a01b038216907fbc7cd75a20ee27fd9adebab32041f755214dbc6bffa90cc0225b39da2e5c2d3b90600090a250565b60606001600160a01b0383163b611a865760405162461bcd60e51b815260206004820152602660248201527f416464726573733a2064656c65676174652063616c6c20746f206e6f6e2d636f6044820152651b9d1c9858dd60d21b6064820152608401610577565b600080846001600160a01b031684604051611aa191906123ba565b600060405180830381855af49150503d8060008114611adc576040519150601f19603f3d011682016040523d82523d6000602084013e611ae1565b606091505b5091509150611b09828260405180606001604052806027815260200161241760279139611bef565b95945050505050565b606082471015611b735760405162461bcd60e51b815260206004820152602660248201527f416464726573733a20696e73756666696369656e742062616c616e636520666f6044820152651c8818d85b1b60d21b6064820152608401610577565b600080866001600160a01b03168587604051611b8f91906123ba565b60006040518083038185875af1925050503d8060008114611bcc576040519150601f19603f3d011682016040523d82523d6000602084013e611bd1565b606091505b5091509150611be287838387611c08565b925050505b949350505050565b60608315611bfe575081611829565b6118298383611c7a565b60608315611c74578251611c6d576001600160a01b0385163b611c6d5760405162461bcd60e51b815260206004820152601d60248201527f416464726573733a2063616c6c20746f206e6f6e2d636f6e74726163740000006044820152606401610577565b5081611be7565b611be783835b815115611c8a5781518083602001fd5b8060405162461bcd60e51b81526004016105779190612339565b600060208284031215611cb657600080fd5b81356001600160e01b03198116811461182957600080fd5b600060208284031215611ce057600080fd5b5035919050565b6001600160a01b0381168114610b1157600080fd5b600080600080600080600060c0888a031215611d1757600080fd5b8735611d2281611ce7565b96506020880135611d3281611ce7565b95506040880135945060608801359350608088013567ffffffffffffffff80821115611d5d57600080fd5b818a0191508a601f830112611d7157600080fd5b813581811115611d8057600080fd5b8b6020828501011115611d9257600080fd5b60208301955080945050505060a0880135905092959891949750929550565b60008060408385031215611dc457600080fd5b823591506020830135611dd681611ce7565b809150509250929050565b600060208284031215611df357600080fd5b813561182981611ce7565b634e487b7160e01b600052604160045260246000fd5b604051601f8201601f1916810167ffffffffffffffff81118282101715611e3d57611e3d611dfe565b604052919050565b60008060408385031215611e5857600080fd5b8235611e6381611ce7565b915060208381013567ffffffffffffffff80821115611e8157600080fd5b818601915086601f830112611e9557600080fd5b813581811115611ea757611ea7611dfe565b611eb9601f8201601f19168501611e14565b91508082528784828501011115611ecf57600080fd5b80848401858401376000848284010152508093505050509250929050565b600067ffffffffffffffff821115611f0757611f07611dfe565b5060051b60200190565b8015158114610b1157600080fd5b600082601f830112611f3057600080fd5b81356020611f45611f4083611eed565b611e14565b82815260059290921b84018101918181019086841115611f6457600080fd5b8286015b84811015611f88578035611f7b81611f11565b8352918301918301611f68565b509695505050505050565b60008060408385031215611fa657600080fd5b823567ffffffffffffffff80821115611fbe57600080fd5b818501915085601f830112611fd257600080fd5b81356020611fe2611f4083611eed565b82815260059290921b8401810191818101908984111561200157600080fd5b948201945b8386101561202857853561201981611ce7565b82529482019490820190612006565b9650508601359250508082111561203e57600080fd5b5061204b85828601611f1f565b9150509250929050565b6001600160a01b0387811682528681166020830152851660408201526060810184905260a06080820181905281018290526000828460c0840137600060c0848401015260c0601f19601f8501168301019050979650505050505050565b6020808252602c908201527f46756e6374696f6e206d7573742062652063616c6c6564207468726f7567682060408201526b19195b1959d85d1958d85b1b60a21b606082015260800190565b6020808252602c908201527f46756e6374696f6e206d7573742062652063616c6c6564207468726f7567682060408201526b6163746976652070726f787960a01b606082015260800190565b634e487b7160e01b600052603260045260246000fd5b634e487b7160e01b600052601160045260246000fd5b600060001982141561218a5761218a612160565b5060010190565b604080825283519082018190526000906020906060840190828701845b828110156121d35781516001600160a01b0316845292840192908401906001016121ae565b5050508381038285015284518082528583019183019060005b8181101561220a5783511515835292840192918401916001016121ec565b5090979650505050505050565b60006020828403121561222957600080fd5b5051919050565b6020808252602b908201527f496e697469616c697a61626c653a20636f6e7472616374206973206e6f74206960408201526a6e697469616c697a696e6760a81b606082015260800190565b60006020828403121561228d57600080fd5b815161182981611f11565b60005b838110156122b357818101518382015260200161229b565b838111156112195750506000910152565b7f416363657373436f6e74726f6c3a206163636f756e74200000000000000000008152600083516122fc816017850160208801612298565b7001034b99036b4b9b9b4b733903937b6329607d1b601791840191820152835161232d816028840160208801612298565b01602801949350505050565b6020815260008251806020840152612358816040850160208701612298565b601f01601f19169190910160400192915050565b600081600019048311821515161561238657612386612160565b500290565b6000821982111561239e5761239e612160565b500190565b6000816123b2576123b2612160565b506000190190565b600082516123cc818460208701612298565b919091019291505056fe360894a13ba1a3210667c828492db98dca3e2076cc3735a920a3ca505d382bbce692a7e096d848569909e66112558082d61f6eab73eb7d42b3328084547a0c86416464726573733a206c6f772d6c6576656c2064656c65676174652063616c6c206661696c6564a164736f6c634300080b000a",
  "linkReferences": {},
  "deployedLinkReferences": {}
}