{
  "_format": "hh-sol-artifact-1",
  "contractName": "EthErc20FastBridge",
  "sourceName": "contracts/EthErc20FastBridge.sol",
  "abi": [
    {
      "anonymous": false,
      "inputs": [
        {
          "indexed": false,
          "internalType": "address",
          "name": "token",
          "type": "address"
        }
      ],
      "name": "AddTokenToWhitelist",
      "type": "event"
    },
    {
      "anonymous": false,
      "inputs": [
        {
          "indexed": false,
          "internalType": "address",
          "name": "previousAdmin",
          "type": "address"
        },
        {
          "indexed": false,
          "internalType": "address",
          "name": "newAdmin",
          "type": "address"
        }
      ],
      "name": "AdminChanged",
      "type": "event"
    },
    {
      "anonymous": false,
      "inputs": [
        {
          "indexed": true,
          "internalType": "address",
          "name": "beacon",
          "type": "address"
        }
      ],
      "name": "BeaconUpgraded",
      "type": "event"
    },
    {
      "anonymous": false,
      "inputs": [
        {
          "indexed": false,
          "internalType": "uint8",
          "name": "version",
          "type": "uint8"
        }
      ],
      "name": "Initialized",
      "type": "event"
    },
    {
      "anonymous": false,
      "inputs": [
        {
          "indexed": false,
          "internalType": "address",
          "name": "account",
          "type": "address"
        }
      ],
      "name": "Paused",
      "type": "event"
    },
    {
      "anonymous": false,
      "inputs": [
        {
          "indexed": false,
          "internalType": "address",
          "name": "token",
          "type": "address"
        }
      ],
      "name": "RemoveTokenFromWhitelist",
      "type": "event"
    },
    {
      "anonymous": false,
      "inputs": [
        {
          "indexed": true,
          "internalType": "bytes32",
          "name": "role",
          "type": "bytes32"
        },
        {
          "indexed": true,
          "internalType": "bytes32",
          "name": "previousAdminRole",
          "type": "bytes32"
        },
        {
          "indexed": true,
          "internalType": "bytes32",
          "name": "newAdminRole",
          "type": "bytes32"
        }
      ],
      "name": "RoleAdminChanged",
      "type": "event"
    },
    {
      "anonymous": false,
      "inputs": [
        {
          "indexed": true,
          "internalType": "bytes32",
          "name": "role",
          "type": "bytes32"
        },
        {
          "indexed": true,
          "internalType": "address",
          "name": "account",
          "type": "address"
        },
        {
          "indexed": true,
          "internalType": "address",
          "name": "sender",
          "type": "address"
        }
      ],
      "name": "RoleGranted",
      "type": "event"
    },
    {
      "anonymous": false,
      "inputs": [
        {
          "indexed": true,
          "internalType": "bytes32",
          "name": "role",
          "type": "bytes32"
        },
        {
          "indexed": true,
          "internalType": "address",
          "name": "account",
          "type": "address"
        },
        {
          "indexed": true,
          "internalType": "address",
          "name": "sender",
          "type": "address"
        }
      ],
      "name": "RoleRevoked",
      "type": "event"
    },
    {
      "anonymous": false,
      "inputs": [
        {
          "indexed": false,
          "internalType": "address[]",
          "name": "_tokens",
          "type": "address[]"
        },
        {
          "indexed": false,
          "internalType": "bool[]",
          "name": "_states",
          "type": "bool[]"
        }
      ],
      "name": "SetTokens",
      "type": "event"
    },
    {
      "anonymous": false,
      "inputs": [
        {
          "indexed": true,
          "internalType": "uint256",
          "name": "_nonce",
          "type": "uint256"
        },
        {
          "indexed": false,
          "internalType": "address",
          "name": "_relayer",
          "type": "address"
        },
        {
          "indexed": false,
          "internalType": "address",
          "name": "_token",
          "type": "address"
        },
        {
          "indexed": false,
          "internalType": "address",
          "name": "_recipient",
          "type": "address"
        },
        {
          "indexed": false,
          "internalType": "uint256",
          "name": "_amount",
          "type": "uint256"
        },
        {
          "indexed": false,
          "internalType": "string",
          "name": "_unlock_recipient",
          "type": "string"
        },
        {
          "indexed": true,
          "internalType": "bytes32",
          "name": "_transfer_id",
          "type": "bytes32"
        }
      ],
      "name": "TransferTokens",
      "type": "event"
    },
    {
      "anonymous": false,
      "inputs": [
        {
          "indexed": false,
          "internalType": "address",
          "name": "account",
          "type": "address"
        }
      ],
      "name": "Unpaused",
      "type": "event"
    },
    {
      "anonymous": false,
      "inputs": [
        {
          "indexed": true,
          "internalType": "address",
          "name": "implementation",
          "type": "address"
        }
      ],
      "name": "Upgraded",
      "type": "event"
    },
    {
      "inputs": [],
      "name": "DEFAULT_ADMIN_ROLE",
      "outputs": [
        {
          "internalType": "bytes32",
          "name": "",
          "type": "bytes32"
        }
      ],
      "stateMutability": "view",
      "type": "function"
    },
    {
      "inputs": [],
      "name": "PAUSABLE_ADMIN_ROLE",
      "outputs": [
        {
          "internalType": "bytes32",
          "name": "",
          "type": "bytes32"
        }
      ],
      "stateMutability": "view",
      "type": "function"
    },
    {
      "inputs": [],
      "name": "UNPAUSABLE_ADMIN_ROLE",
      "outputs": [
        {
          "internalType": "bytes32",
          "name": "",
          "type": "bytes32"
        }
      ],
      "stateMutability": "view",
      "type": "function"
    },
    {
      "inputs": [],
      "name": "WHITELISTING_TOKENS_ADMIN_ROLE",
      "outputs": [
        {
          "internalType": "bytes32",
          "name": "",
          "type": "bytes32"
        }
      ],
      "stateMutability": "view",
      "type": "function"
    },
    {
      "inputs": [
        {
          "internalType": "address",
          "name": "_token",
          "type": "address"
        }
      ],
      "name": "addTokenToWhitelist",
      "outputs": [],
      "stateMutability": "nonpayable",
      "type": "function"
    },
    {
      "inputs": [
        {
          "internalType": "bytes32",
          "name": "role",
          "type": "bytes32"
        }
      ],
      "name": "getRoleAdmin",
      "outputs": [
        {
          "internalType": "bytes32",
          "name": "",
          "type": "bytes32"
        }
      ],
      "stateMutability": "view",
      "type": "function"
    },
    {
      "inputs": [
        {
          "internalType": "bytes32",
          "name": "role",
          "type": "bytes32"
        },
        {
          "internalType": "address",
          "name": "account",
          "type": "address"
        }
      ],
      "name": "grantRole",
      "outputs": [],
      "stateMutability": "nonpayable",
      "type": "function"
    },
    {
      "inputs": [
        {
          "internalType": "bytes32",
          "name": "role",
          "type": "bytes32"
        },
        {
          "internalType": "address",
          "name": "account",
          "type": "address"
        }
      ],
      "name": "hasRole",
      "outputs": [
        {
          "internalType": "bool",
          "name": "",
          "type": "bool"
        }
      ],
      "stateMutability": "view",
      "type": "function"
    },
    {
      "inputs": [
        {
          "internalType": "address[]",
          "name": "_tokens",
          "type": "address[]"
        },
        {
          "internalType": "bool[]",
          "name": "_states",
          "type": "bool[]"
        }
      ],
      "name": "initialize",
      "outputs": [],
      "stateMutability": "nonpayable",
      "type": "function"
    },
    {
      "inputs": [
        {
          "internalType": "address",
          "name": "_token",
          "type": "address"
        }
      ],
      "name": "isTokenInWhitelist",
      "outputs": [
        {
          "internalType": "bool",
          "name": "",
          "type": "bool"
        }
      ],
      "stateMutability": "view",
      "type": "function"
    },
    {
      "inputs": [],
      "name": "pause",
      "outputs": [],
      "stateMutability": "nonpayable",
      "type": "function"
    },
    {
      "inputs": [],
      "name": "paused",
      "outputs": [
        {
          "internalType": "bool",
          "name": "",
          "type": "bool"
        }
      ],
      "stateMutability": "view",
      "type": "function"
    },
    {
      "inputs": [
        {
          "internalType": "bytes32",
          "name": "",
          "type": "bytes32"
        }
      ],
      "name": "processedHashes",
      "outputs": [
        {
          "internalType": "bool",
          "name": "",
          "type": "bool"
        }
      ],
      "stateMutability": "view",
      "type": "function"
    },
    {
      "inputs": [],
      "name": "proxiableUUID",
      "outputs": [
        {
          "internalType": "bytes32",
          "name": "",
          "type": "bytes32"
        }
      ],
      "stateMutability": "view",
      "type": "function"
    },
    {
      "inputs": [
        {
          "internalType": "address",
          "name": "_token",
          "type": "address"
        }
      ],
      "name": "removeTokenFromWhitelist",
      "outputs": [],
      "stateMutability": "nonpayable",
      "type": "function"
    },
    {
      "inputs": [
        {
          "internalType": "bytes32",
          "name": "role",
          "type": "bytes32"
        },
        {
          "internalType": "address",
          "name": "account",
          "type": "address"
        }
      ],
      "name": "renounceRole",
      "outputs": [],
      "stateMutability": "nonpayable",
      "type": "function"
    },
    {
      "inputs": [
        {
          "internalType": "bytes32",
          "name": "role",
          "type": "bytes32"
        },
        {
          "internalType": "address",
          "name": "account",
          "type": "address"
        }
      ],
      "name": "revokeRole",
      "outputs": [],
      "stateMutability": "nonpayable",
      "type": "function"
    },
    {
      "inputs": [
        {
          "internalType": "address[]",
          "name": "_tokens",
          "type": "address[]"
        },
        {
          "internalType": "bool[]",
          "name": "_states",
          "type": "bool[]"
        }
      ],
      "name": "setWhitelistedTokens",
      "outputs": [],
      "stateMutability": "nonpayable",
      "type": "function"
    },
    {
      "inputs": [
        {
          "internalType": "bytes4",
          "name": "interfaceId",
          "type": "bytes4"
        }
      ],
      "name": "supportsInterface",
      "outputs": [
        {
          "internalType": "bool",
          "name": "",
          "type": "bool"
        }
      ],
      "stateMutability": "view",
      "type": "function"
    },
    {
      "inputs": [
        {
          "internalType": "address",
          "name": "_token",
          "type": "address"
        },
        {
          "internalType": "address payable",
          "name": "_recipient",
          "type": "address"
        },
        {
          "internalType": "uint256",
          "name": "_nonce",
          "type": "uint256"
        },
        {
          "internalType": "uint256",
          "name": "_amount",
          "type": "uint256"
        },
        {
          "internalType": "string",
          "name": "_unlock_recipient",
          "type": "string"
        },
        {
          "internalType": "uint256",
          "name": "_valid_till_block_height",
          "type": "uint256"
        }
      ],
      "name": "transferTokens",
      "outputs": [],
      "stateMutability": "payable",
      "type": "function"
    },
    {
      "inputs": [],
      "name": "unPause",
      "outputs": [],
      "stateMutability": "nonpayable",
      "type": "function"
    },
    {
      "inputs": [
        {
          "internalType": "address",
          "name": "newImplementation",
          "type": "address"
        }
      ],
      "name": "upgradeTo",
      "outputs": [],
      "stateMutability": "nonpayable",
      "type": "function"
    },
    {
      "inputs": [
        {
          "internalType": "address",
          "name": "newImplementation",
          "type": "address"
        },
        {
          "internalType": "bytes",
          "name": "data",
          "type": "bytes"
        }
      ],
      "name": "upgradeToAndCall",
      "outputs": [],
      "stateMutability": "payable",
      "type": "function"
    },
    {
      "inputs": [
        {
          "internalType": "address",
          "name": "",
          "type": "address"
        }
      ],
      "name": "whitelistedTokens",
      "outputs": [
        {
          "internalType": "bool",
          "name": "",
          "type": "bool"
        }
      ],
      "stateMutability": "view",
      "type": "function"
    },
    {
      "inputs": [
        {
          "internalType": "address",
          "name": "_token",
          "type": "address"
        }
      ],
      "name": "withdrawStuckTokens",
      "outputs": [],
      "stateMutability": "nonpayable",
      "type": "function"
    }
  ],
  "bytecode": "0x60a06040523060805234801561001457600080fd5b5060805161244661004c60003960008181610a3b01528181610a7b01528181610b1b01528181610b5b0152610bea01526124466000f3fe6080604052600436106101665760003560e01c80635c975abb116100d1578063c571967b1161008a578063d84c1b3811610064578063d84c1b3814610452578063d929780714610472578063daf9c21014610492578063f7b188a5146104c357600080fd5b8063c571967b146103f2578063cb96372814610412578063d547741f1461043257600080fd5b80635c975abb146103345780638456cb591461034c57806386d29552146103615780638a6df3821461038357806391d14854146103bd578063a217fddf146103dd57600080fd5b80632f2ff15d116101235780632f2ff15d1461028c578063306275be146102ac57806336568abe146102cc5780633659cfe6146102ec5780634f1ef2861461030c57806352d1902d1461031f57600080fd5b806301ffc9a71461016b57806307d9c534146101a05780630cd99de8146101d15780631a46605e14610213578063248a9ca3146102475780632ecf4d5514610277575b600080fd5b34801561017757600080fd5b5061018b610186366004611ca0565b6104d8565b60405190151581526020015b60405180910390f35b3480156101ac57600080fd5b5061018b6101bb366004611cca565b61012e6020526000908152604090205460ff1681565b3480156101dd57600080fd5b506102057f1e1db0d9c63b4a23ec134ff71a2f56610c32f638cbff81e96e14734c4daf0b4d81565b604051908152602001610197565b34801561021f57600080fd5b506102057fc804e2aea55839c8bd1fe2c628730bd5ddeb93faf1add0fe7de81d2d3876f60c81565b34801561025357600080fd5b50610205610262366004611cca565b600090815260c9602052604090206001015490565b61028a610285366004611cf8565b61050f565b005b34801561029857600080fd5b5061028a6102a7366004611dad565b6108b4565b3480156102b857600080fd5b5061028a6102c7366004611ddd565b6108de565b3480156102d857600080fd5b5061028a6102e7366004611dad565b6109b2565b3480156102f857600080fd5b5061028a610307366004611ddd565b610a30565b61028a61031a366004611e41565b610b10565b34801561032b57600080fd5b50610205610bdd565b34801561034057600080fd5b5060fb5460ff1661018b565b34801561035857600080fd5b5061028a610c90565b34801561036d57600080fd5b506102056000805160206123f383398151915281565b34801561038f57600080fd5b5061018b61039e366004611ddd565b6001600160a01b0316600090815261012d602052604090205460ff1690565b3480156103c957600080fd5b5061018b6103d8366004611dad565b610cc2565b3480156103e957600080fd5b50610205600081565b3480156103fe57600080fd5b5061028a61040d366004611f8f565b610ced565b34801561041e57600080fd5b5061028a61042d366004611ddd565b610e0d565b34801561043e57600080fd5b5061028a61044d366004611dad565b610e99565b34801561045e57600080fd5b5061028a61046d366004611ddd565b610ebe565b34801561047e57600080fd5b5061028a61048d366004611f8f565b610f95565b34801561049e57600080fd5b5061018b6104ad366004611ddd565b61012d6020526000908152604090205460ff1681565b3480156104cf57600080fd5b5061028a611130565b60006001600160e01b03198216637965db0b60e01b148061050957506301ffc9a760e01b6001600160e01b03198316145b92915050565b610517611162565b6001600160a01b038716600090815261012d6020526040902054879060ff166105805760405162461bcd60e51b8152602060048201526016602482015275546f6b656e206e6f742077686974656c69737465642160501b60448201526064015b60405180910390fd5b8143106105c25760405162461bcd60e51b815260206004820152601060248201526f151c985b9cd9995c88195e1c1a5c995960821b6044820152606401610577565b6001600160a01b038716158015906105e357506001600160a01b0387163314155b61062f5760405162461bcd60e51b815260206004820152601860248201527f57726f6e6720726563697069656e742070726f766964656400000000000000006044820152606401610577565b846106745760405162461bcd60e51b815260206004820152601560248201527415dc9bdb99c8185b5bdd5b9d081c1c9bdd9a591959605a1b6044820152606401610577565b6040516bffffffffffffffffffffffff1960608a811b8216602084015289901b166034820152604881018790526068810186905260009060880160408051601f198184030181529181528151602092830120600081815261012e90935291205490915060ff161561073c5760405162461bcd60e51b815260206004820152602c60248201527f54686973207472616e73616374696f6e2068617320616c72656164792062656560448201526b6e2070726f6365737365642160a01b6064820152608401610577565b600081815261012e60205260409020805460ff191660011790556001600160a01b0389166107ef573486146107b35760405162461bcd60e51b815260206004820152601c60248201527f57726f6e672065746865727320616d6f756e742070726f7669646564000000006044820152606401610577565b6040516001600160a01b0389169087156108fc029088906000818181858888f193505050501580156107e9573d6000803e3d6000fd5b50610866565b341561084e5760405162461bcd60e51b815260206004820152602860248201527f457468657273206e6f7420616363657074656420666f72204552432d3230207460448201526772616e736665727360c01b6064820152608401610577565b886108646001600160a01b038216338b8a6111aa565b505b80877fed54b7aec45dbd5851e5b6484f6fbc0e5990e127a8f1eea7a1e113eba6bfacf9338c8c8b8b8b6040516108a196959493929190612051565b60405180910390a3505050505050505050565b600082815260c960205260409020600101546108cf8161121b565b6108d98383611225565b505050565b6000805160206123f38339815191526108f68161121b565b6001600160a01b038216600090815261012d602052604090205460ff166109585760405162461bcd60e51b8152602060048201526016602482015275546f6b656e206e6f742077686974656c69737465642160501b6044820152606401610577565b6001600160a01b038216600081815261012d6020908152604091829020805460ff1916905590519182527fd63a6c09205e963ed38724b08c22ff46ffa1f4146dbdba046f7430f7b778fa0291015b60405180910390a15050565b6001600160a01b0381163314610a225760405162461bcd60e51b815260206004820152602f60248201527f416363657373436f6e74726f6c3a2063616e206f6e6c792072656e6f756e636560448201526e103937b632b9903337b91039b2b63360891b6064820152608401610577565b610a2c82826112ab565b5050565b306001600160a01b037f0000000000000000000000000000000000000000000000000000000000000000161415610a795760405162461bcd60e51b8152600401610577906120ae565b7f00000000000000000000000000000000000000000000000000000000000000006001600160a01b0316610ac26000805160206123d3833981519152546001600160a01b031690565b6001600160a01b031614610ae85760405162461bcd60e51b8152600401610577906120fa565b610af181611312565b60408051600080825260208201909252610b0d9183919061131d565b50565b306001600160a01b037f0000000000000000000000000000000000000000000000000000000000000000161415610b595760405162461bcd60e51b8152600401610577906120ae565b7f00000000000000000000000000000000000000000000000000000000000000006001600160a01b0316610ba26000805160206123d3833981519152546001600160a01b031690565b6001600160a01b031614610bc85760405162461bcd60e51b8152600401610577906120fa565b610bd182611312565b610a2c8282600161131d565b6000306001600160a01b037f00000000000000000000000000000000000000000000000000000000000000001614610c7d5760405162461bcd60e51b815260206004820152603860248201527f555550535570677261646561626c653a206d757374206e6f742062652063616c60448201527f6c6564207468726f7567682064656c656761746563616c6c00000000000000006064820152608401610577565b506000805160206123d383398151915290565b7f1e1db0d9c63b4a23ec134ff71a2f56610c32f638cbff81e96e14734c4daf0b4d610cba8161121b565b610b0d611488565b600091825260c9602090815260408084206001600160a01b0393909316845291905290205460ff1690565b6000805160206123f3833981519152610d058161121b565b8151835114610d4d5760405162461bcd60e51b8152602060048201526014602482015273105c9c985e5cc81b5d5cdd08189948195c5d585b60621b6044820152606401610577565b60005b8351811015610dce57828181518110610d6b57610d6b612146565b602002602001015161012d6000868481518110610d8a57610d8a612146565b6020908102919091018101516001600160a01b03168252810191909152604001600020805460ff191691151591909117905580610dc681612172565b915050610d50565b507f8569737c05ca3684284dc2d7a44ce0965e01af77b24e61bbd8df66413c4c33218383604051610e0092919061218d565b60405180910390a1505050565b6000610e188161121b565b6040516370a0823160e01b815230600482015282906108d99033906001600160a01b038416906370a0823190602401602060405180830381865afa158015610e64573d6000803e3d6000fd5b505050506040513d601f19601f82011682018060405250810190610e889190612213565b6001600160a01b03841691906114e2565b600082815260c96020526040902060010154610eb48161121b565b6108d983836112ab565b6000805160206123f3833981519152610ed68161121b565b6001600160a01b038216600090815261012d602052604090205460ff1615610f405760405162461bcd60e51b815260206004820152601a60248201527f546f6b656e20616c72656164792077686974656c6973746564210000000000006044820152606401610577565b6001600160a01b038216600081815261012d6020908152604091829020805460ff1916600117905590519182527f2b1c15aae705d7cadc13bba9b1f7cd64654a4b66d5a06081f27ddeb1adb2424591016109a6565b600054610100900460ff1615808015610fb55750600054600160ff909116105b80610fcf5750303b158015610fcf575060005460ff166001145b6110325760405162461bcd60e51b815260206004820152602e60248201527f496e697469616c697a61626c653a20636f6e747261637420697320616c72656160448201526d191e481a5b9a5d1a585b1a5e995960921b6064820152608401610577565b6000805460ff191660011790558015611055576000805461ff0019166101001790555b61105d611512565b611065611541565b61106d611541565b611078600033611568565b6110906000805160206123f383398151915233611568565b6110ba7f1e1db0d9c63b4a23ec134ff71a2f56610c32f638cbff81e96e14734c4daf0b4d33611568565b6110e47fc804e2aea55839c8bd1fe2c628730bd5ddeb93faf1add0fe7de81d2d3876f60c33611568565b6110ee8383610ced565b80156108d9576000805461ff0019169055604051600181527f7f26b83ff96e1f2b6a682f133852f6798a09c465da95921460cefb384740249890602001610e00565b7fc804e2aea55839c8bd1fe2c628730bd5ddeb93faf1add0fe7de81d2d3876f60c61115a8161121b565b610b0d611572565b60fb5460ff16156111a85760405162461bcd60e51b815260206004820152601060248201526f14185d5cd8589b194e881c185d5cd95960821b6044820152606401610577565b565b6040516001600160a01b03808516602483015283166044820152606481018290526112159085906323b872dd60e01b906084015b60408051601f198184030181529190526020810180516001600160e01b03166001600160e01b0319909316929092179091526115ab565b50505050565b610b0d813361167d565b61122f8282610cc2565b610a2c57600082815260c9602090815260408083206001600160a01b03851684529091529020805460ff191660011790556112673390565b6001600160a01b0316816001600160a01b0316837f2f8788117e7eff1d82e926ec794901d17c78024a50270940304540a733656f0d60405160405180910390a45050565b6112b58282610cc2565b15610a2c57600082815260c9602090815260408083206001600160a01b0385168085529252808320805460ff1916905551339285917ff6391f5c32d9c69d2a47ea670b442974b53935d1edc7fd64eb21e047a839171b9190a45050565b6000610a2c8161121b565b7f4910fdfa16fed3260ed0e7147f7cc6da11a60208b5b9406d12a635614ffd91435460ff1615611350576108d9836116d6565b826001600160a01b03166352d1902d6040518163ffffffff1660e01b8152600401602060405180830381865afa9250505080156113aa575060408051601f3d908101601f191682019092526113a791810190612213565b60015b61140d5760405162461bcd60e51b815260206004820152602e60248201527f45524331393637557067726164653a206e657720696d706c656d656e7461746960448201526d6f6e206973206e6f74205555505360901b6064820152608401610577565b6000805160206123d3833981519152811461147c5760405162461bcd60e51b815260206004820152602960248201527f45524331393637557067726164653a20756e737570706f727465642070726f786044820152681a58589b195555525160ba1b6064820152608401610577565b506108d9838383611772565b611490611162565b60fb805460ff191660011790557f62e78cea01bee320cd4e420270b5ea74000d11b0c9f74754ebdbfc544b05a2586114c53390565b6040516001600160a01b03909116815260200160405180910390a1565b6040516001600160a01b0383166024820152604481018290526108d990849063a9059cbb60e01b906064016111de565b600054610100900460ff166115395760405162461bcd60e51b81526004016105779061222c565b6111a8611797565b600054610100900460ff166111a85760405162461bcd60e51b81526004016105779061222c565b610a2c8282611225565b61157a6117ca565b60fb805460ff191690557f5db9ee0a495bf2e6ff9c91a7834c1ba4fdd244a5e8aa4e537bd38aeae4b073aa336114c5565b6000611600826040518060400160405280602081526020017f5361666545524332303a206c6f772d6c6576656c2063616c6c206661696c6564815250856001600160a01b03166118139092919063ffffffff16565b8051909150156108d9578080602001905181019061161e9190612277565b6108d95760405162461bcd60e51b815260206004820152602a60248201527f5361666545524332303a204552433230206f7065726174696f6e20646964206e6044820152691bdd081cdd58d8d9595960b21b6064820152608401610577565b6116878282610cc2565b610a2c576116948161182c565b61169f83602061183e565b6040516020016116b09291906122c0565b60408051601f198184030181529082905262461bcd60e51b825261057791600401612335565b6001600160a01b0381163b6117435760405162461bcd60e51b815260206004820152602d60248201527f455243313936373a206e657720696d706c656d656e746174696f6e206973206e60448201526c1bdd08184818dbdb9d1c9858dd609a1b6064820152608401610577565b6000805160206123d383398151915280546001600160a01b0319166001600160a01b0392909216919091179055565b61177b836119da565b6000825111806117885750805b156108d9576112158383611a1a565b600054610100900460ff166117be5760405162461bcd60e51b81526004016105779061222c565b60fb805460ff19169055565b60fb5460ff166111a85760405162461bcd60e51b815260206004820152601460248201527314185d5cd8589b194e881b9bdd081c185d5cd95960621b6044820152606401610577565b60606118228484600085611b0e565b90505b9392505050565b60606105096001600160a01b03831660145b6060600061184d836002612368565b611858906002612387565b67ffffffffffffffff81111561187057611870611dfa565b6040519080825280601f01601f19166020018201604052801561189a576020820181803683370190505b509050600360fc1b816000815181106118b5576118b5612146565b60200101906001600160f81b031916908160001a905350600f60fb1b816001815181106118e4576118e4612146565b60200101906001600160f81b031916908160001a9053506000611908846002612368565b611913906001612387565b90505b600181111561198b576f181899199a1a9b1b9c1cb0b131b232b360811b85600f166010811061194757611947612146565b1a60f81b82828151811061195d5761195d612146565b60200101906001600160f81b031916908160001a90535060049490941c936119848161239f565b9050611916565b5083156118255760405162461bcd60e51b815260206004820181905260248201527f537472696e67733a20686578206c656e67746820696e73756666696369656e746044820152606401610577565b6119e3816116d6565b6040516001600160a01b038216907fbc7cd75a20ee27fd9adebab32041f755214dbc6bffa90cc0225b39da2e5c2d3b90600090a250565b60606001600160a01b0383163b611a825760405162461bcd60e51b815260206004820152602660248201527f416464726573733a2064656c65676174652063616c6c20746f206e6f6e2d636f6044820152651b9d1c9858dd60d21b6064820152608401610577565b600080846001600160a01b031684604051611a9d91906123b6565b600060405180830381855af49150503d8060008114611ad8576040519150601f19603f3d011682016040523d82523d6000602084013e611add565b606091505b5091509150611b05828260405180606001604052806027815260200161241360279139611beb565b95945050505050565b606082471015611b6f5760405162461bcd60e51b815260206004820152602660248201527f416464726573733a20696e73756666696369656e742062616c616e636520666f6044820152651c8818d85b1b60d21b6064820152608401610577565b600080866001600160a01b03168587604051611b8b91906123b6565b60006040518083038185875af1925050503d8060008114611bc8576040519150601f19603f3d011682016040523d82523d6000602084013e611bcd565b606091505b5091509150611bde87838387611c04565b925050505b949350505050565b60608315611bfa575081611825565b6118258383611c76565b60608315611c70578251611c69576001600160a01b0385163b611c695760405162461bcd60e51b815260206004820152601d60248201527f416464726573733a2063616c6c20746f206e6f6e2d636f6e74726163740000006044820152606401610577565b5081611be3565b611be383835b815115611c865781518083602001fd5b8060405162461bcd60e51b81526004016105779190612335565b600060208284031215611cb257600080fd5b81356001600160e01b03198116811461182557600080fd5b600060208284031215611cdc57600080fd5b5035919050565b6001600160a01b0381168114610b0d57600080fd5b600080600080600080600060c0888a031215611d1357600080fd5b8735611d1e81611ce3565b96506020880135611d2e81611ce3565b95506040880135945060608801359350608088013567ffffffffffffffff80821115611d5957600080fd5b818a0191508a601f830112611d6d57600080fd5b813581811115611d7c57600080fd5b8b6020828501011115611d8e57600080fd5b60208301955080945050505060a0880135905092959891949750929550565b60008060408385031215611dc057600080fd5b823591506020830135611dd281611ce3565b809150509250929050565b600060208284031215611def57600080fd5b813561182581611ce3565b634e487b7160e01b600052604160045260246000fd5b604051601f8201601f1916810167ffffffffffffffff81118282101715611e3957611e39611dfa565b604052919050565b60008060408385031215611e5457600080fd5b8235611e5f81611ce3565b915060208381013567ffffffffffffffff80821115611e7d57600080fd5b818601915086601f830112611e9157600080fd5b813581811115611ea357611ea3611dfa565b611eb5601f8201601f19168501611e10565b91508082528784828501011115611ecb57600080fd5b80848401858401376000848284010152508093505050509250929050565b600067ffffffffffffffff821115611f0357611f03611dfa565b5060051b60200190565b8015158114610b0d57600080fd5b600082601f830112611f2c57600080fd5b81356020611f41611f3c83611ee9565b611e10565b82815260059290921b84018101918181019086841115611f6057600080fd5b8286015b84811015611f84578035611f7781611f0d565b8352918301918301611f64565b509695505050505050565b60008060408385031215611fa257600080fd5b823567ffffffffffffffff80821115611fba57600080fd5b818501915085601f830112611fce57600080fd5b81356020611fde611f3c83611ee9565b82815260059290921b84018101918181019089841115611ffd57600080fd5b948201945b8386101561202457853561201581611ce3565b82529482019490820190612002565b9650508601359250508082111561203a57600080fd5b5061204785828601611f1b565b9150509250929050565b6001600160a01b0387811682528681166020830152851660408201526060810184905260a06080820181905281018290526000828460c0840137600060c0848401015260c0601f19601f8501168301019050979650505050505050565b6020808252602c908201527f46756e6374696f6e206d7573742062652063616c6c6564207468726f7567682060408201526b19195b1959d85d1958d85b1b60a21b606082015260800190565b6020808252602c908201527f46756e6374696f6e206d7573742062652063616c6c6564207468726f7567682060408201526b6163746976652070726f787960a01b606082015260800190565b634e487b7160e01b600052603260045260246000fd5b634e487b7160e01b600052601160045260246000fd5b60006000198214156121865761218661215c565b5060010190565b604080825283519082018190526000906020906060840190828701845b828110156121cf5781516001600160a01b0316845292840192908401906001016121aa565b5050508381038285015284518082528583019183019060005b818110156122065783511515835292840192918401916001016121e8565b5090979650505050505050565b60006020828403121561222557600080fd5b5051919050565b6020808252602b908201527f496e697469616c697a61626c653a20636f6e7472616374206973206e6f74206960408201526a6e697469616c697a696e6760a81b606082015260800190565b60006020828403121561228957600080fd5b815161182581611f0d565b60005b838110156122af578181015183820152602001612297565b838111156112155750506000910152565b7f416363657373436f6e74726f6c3a206163636f756e74200000000000000000008152600083516122f8816017850160208801612294565b7001034b99036b4b9b9b4b733903937b6329607d1b6017918401918201528351612329816028840160208801612294565b01602801949350505050565b6020815260008251806020840152612354816040850160208701612294565b601f01601f19169190910160400192915050565b60008160001904831182151516156123825761238261215c565b500290565b6000821982111561239a5761239a61215c565b500190565b6000816123ae576123ae61215c565b506000190190565b600082516123c8818460208701612294565b919091019291505056fe360894a13ba1a3210667c828492db98dca3e2076cc3735a920a3ca505d382bbce692a7e096d848569909e66112558082d61f6eab73eb7d42b3328084547a0c86416464726573733a206c6f772d6c6576656c2064656c65676174652063616c6c206661696c6564a164736f6c634300080b000a",
  "linkReferences": {},
  "deployedLinkReferences": {}
}