{
  "_format": "hh-sol-artifact-1",
  "contractName": "EthErc20FastBridge",
  "sourceName": "contracts/EthErc20FastBridge.sol",
  "abi": [
    {
      "anonymous": false,
      "inputs": [
        {
          "indexed": false,
          "internalType": "address",
          "name": "token",
          "type": "address"
        }
      ],
      "name": "AddTokenToWhitelist",
      "type": "event"
    },
    {
      "anonymous": false,
      "inputs": [
        {
          "indexed": false,
          "internalType": "address",
          "name": "previousAdmin",
          "type": "address"
        },
        {
          "indexed": false,
          "internalType": "address",
          "name": "newAdmin",
          "type": "address"
        }
      ],
      "name": "AdminChanged",
      "type": "event"
    },
    {
      "anonymous": false,
      "inputs": [
        {
          "indexed": true,
          "internalType": "address",
          "name": "beacon",
          "type": "address"
        }
      ],
      "name": "BeaconUpgraded",
      "type": "event"
    },
    {
      "anonymous": false,
      "inputs": [
        {
          "indexed": false,
          "internalType": "uint8",
          "name": "version",
          "type": "uint8"
        }
      ],
      "name": "Initialized",
      "type": "event"
    },
    {
      "anonymous": false,
      "inputs": [
        {
          "indexed": false,
          "internalType": "address",
          "name": "account",
          "type": "address"
        }
      ],
      "name": "Paused",
      "type": "event"
    },
    {
      "anonymous": false,
      "inputs": [
        {
          "indexed": false,
          "internalType": "address",
          "name": "token",
          "type": "address"
        }
      ],
      "name": "RemoveTokenFromWhitelist",
      "type": "event"
    },
    {
      "anonymous": false,
      "inputs": [
        {
          "indexed": true,
          "internalType": "bytes32",
          "name": "role",
          "type": "bytes32"
        },
        {
          "indexed": true,
          "internalType": "bytes32",
          "name": "previousAdminRole",
          "type": "bytes32"
        },
        {
          "indexed": true,
          "internalType": "bytes32",
          "name": "newAdminRole",
          "type": "bytes32"
        }
      ],
      "name": "RoleAdminChanged",
      "type": "event"
    },
    {
      "anonymous": false,
      "inputs": [
        {
          "indexed": true,
          "internalType": "bytes32",
          "name": "role",
          "type": "bytes32"
        },
        {
          "indexed": true,
          "internalType": "address",
          "name": "account",
          "type": "address"
        },
        {
          "indexed": true,
          "internalType": "address",
          "name": "sender",
          "type": "address"
        }
      ],
      "name": "RoleGranted",
      "type": "event"
    },
    {
      "anonymous": false,
      "inputs": [
        {
          "indexed": true,
          "internalType": "bytes32",
          "name": "role",
          "type": "bytes32"
        },
        {
          "indexed": true,
          "internalType": "address",
          "name": "account",
          "type": "address"
        },
        {
          "indexed": true,
          "internalType": "address",
          "name": "sender",
          "type": "address"
        }
      ],
      "name": "RoleRevoked",
      "type": "event"
    },
    {
      "anonymous": false,
      "inputs": [
        {
          "indexed": false,
          "internalType": "address[]",
          "name": "_tokens",
          "type": "address[]"
        },
        {
          "indexed": false,
          "internalType": "bool[]",
          "name": "_states",
          "type": "bool[]"
        }
      ],
      "name": "SetTokens",
      "type": "event"
    },
    {
      "anonymous": false,
      "inputs": [
        {
          "indexed": true,
          "internalType": "uint256",
          "name": "_nonce",
          "type": "uint256"
        },
        {
          "indexed": false,
          "internalType": "address",
          "name": "_relayer",
          "type": "address"
        },
        {
          "indexed": false,
          "internalType": "address",
          "name": "_token",
          "type": "address"
        },
        {
          "indexed": false,
          "internalType": "address",
          "name": "_recipient",
          "type": "address"
        },
        {
          "indexed": false,
          "internalType": "uint256",
          "name": "_amount",
          "type": "uint256"
        },
        {
          "indexed": false,
          "internalType": "string",
          "name": "_unlock_recipient",
          "type": "string"
        },
        {
          "indexed": true,
          "internalType": "bytes32",
          "name": "_transfer_id",
          "type": "bytes32"
        }
      ],
      "name": "TransferTokens",
      "type": "event"
    },
    {
      "anonymous": false,
      "inputs": [
        {
          "indexed": false,
          "internalType": "address",
          "name": "account",
          "type": "address"
        }
      ],
      "name": "Unpaused",
      "type": "event"
    },
    {
      "anonymous": false,
      "inputs": [
        {
          "indexed": true,
          "internalType": "address",
          "name": "implementation",
          "type": "address"
        }
      ],
      "name": "Upgraded",
      "type": "event"
    },
    {
      "inputs": [],
      "name": "DEFAULT_ADMIN_ROLE",
      "outputs": [
        {
          "internalType": "bytes32",
          "name": "",
          "type": "bytes32"
        }
      ],
      "stateMutability": "view",
      "type": "function"
    },
    {
      "inputs": [],
      "name": "PAUSABLE_ADMIN_ROLE",
      "outputs": [
        {
          "internalType": "bytes32",
          "name": "",
          "type": "bytes32"
        }
      ],
      "stateMutability": "view",
      "type": "function"
    },
    {
      "inputs": [],
      "name": "UNPAUSABLE_ADMIN_ROLE",
      "outputs": [
        {
          "internalType": "bytes32",
          "name": "",
          "type": "bytes32"
        }
      ],
      "stateMutability": "view",
      "type": "function"
    },
    {
      "inputs": [],
      "name": "WHITELISTING_TOKENS_ADMIN_ROLE",
      "outputs": [
        {
          "internalType": "bytes32",
          "name": "",
          "type": "bytes32"
        }
      ],
      "stateMutability": "view",
      "type": "function"
    },
    {
      "inputs": [
        {
          "internalType": "address",
          "name": "_token",
          "type": "address"
        }
      ],
      "name": "addTokenToWhitelist",
      "outputs": [],
      "stateMutability": "nonpayable",
      "type": "function"
    },
    {
      "inputs": [
        {
          "internalType": "bytes32",
          "name": "role",
          "type": "bytes32"
        }
      ],
      "name": "getRoleAdmin",
      "outputs": [
        {
          "internalType": "bytes32",
          "name": "",
          "type": "bytes32"
        }
      ],
      "stateMutability": "view",
      "type": "function"
    },
    {
      "inputs": [
        {
          "internalType": "bytes32",
          "name": "role",
          "type": "bytes32"
        },
        {
          "internalType": "address",
          "name": "account",
          "type": "address"
        }
      ],
      "name": "grantRole",
      "outputs": [],
      "stateMutability": "nonpayable",
      "type": "function"
    },
    {
      "inputs": [
        {
          "internalType": "bytes32",
          "name": "role",
          "type": "bytes32"
        },
        {
          "internalType": "address",
          "name": "account",
          "type": "address"
        }
      ],
      "name": "hasRole",
      "outputs": [
        {
          "internalType": "bool",
          "name": "",
          "type": "bool"
        }
      ],
      "stateMutability": "view",
      "type": "function"
    },
    {
      "inputs": [
        {
          "internalType": "address[]",
          "name": "_tokens",
          "type": "address[]"
        },
        {
          "internalType": "bool[]",
          "name": "_states",
          "type": "bool[]"
        }
      ],
      "name": "initialize",
      "outputs": [],
      "stateMutability": "nonpayable",
      "type": "function"
    },
    {
      "inputs": [
        {
          "internalType": "address",
          "name": "_token",
          "type": "address"
        }
      ],
      "name": "isTokenInWhitelist",
      "outputs": [
        {
          "internalType": "bool",
          "name": "",
          "type": "bool"
        }
      ],
      "stateMutability": "view",
      "type": "function"
    },
    {
      "inputs": [],
      "name": "pause",
      "outputs": [],
      "stateMutability": "nonpayable",
      "type": "function"
    },
    {
      "inputs": [],
      "name": "paused",
      "outputs": [
        {
          "internalType": "bool",
          "name": "",
          "type": "bool"
        }
      ],
      "stateMutability": "view",
      "type": "function"
    },
    {
      "inputs": [
        {
          "internalType": "bytes32",
          "name": "",
          "type": "bytes32"
        }
      ],
      "name": "processedHashes",
      "outputs": [
        {
          "internalType": "bool",
          "name": "",
          "type": "bool"
        }
      ],
      "stateMutability": "view",
      "type": "function"
    },
    {
      "inputs": [],
      "name": "proxiableUUID",
      "outputs": [
        {
          "internalType": "bytes32",
          "name": "",
          "type": "bytes32"
        }
      ],
      "stateMutability": "view",
      "type": "function"
    },
    {
      "inputs": [
        {
          "internalType": "address",
          "name": "_token",
          "type": "address"
        }
      ],
      "name": "removeTokenFromWhitelist",
      "outputs": [],
      "stateMutability": "nonpayable",
      "type": "function"
    },
    {
      "inputs": [
        {
          "internalType": "bytes32",
          "name": "role",
          "type": "bytes32"
        },
        {
          "internalType": "address",
          "name": "account",
          "type": "address"
        }
      ],
      "name": "renounceRole",
      "outputs": [],
      "stateMutability": "nonpayable",
      "type": "function"
    },
    {
      "inputs": [
        {
          "internalType": "bytes32",
          "name": "role",
          "type": "bytes32"
        },
        {
          "internalType": "address",
          "name": "account",
          "type": "address"
        }
      ],
      "name": "revokeRole",
      "outputs": [],
      "stateMutability": "nonpayable",
      "type": "function"
    },
    {
      "inputs": [
        {
          "internalType": "address[]",
          "name": "_tokens",
          "type": "address[]"
        },
        {
          "internalType": "bool[]",
          "name": "_states",
          "type": "bool[]"
        }
      ],
      "name": "setWhitelistedTokens",
      "outputs": [],
      "stateMutability": "nonpayable",
      "type": "function"
    },
    {
      "inputs": [
        {
          "internalType": "bytes4",
          "name": "interfaceId",
          "type": "bytes4"
        }
      ],
      "name": "supportsInterface",
      "outputs": [
        {
          "internalType": "bool",
          "name": "",
          "type": "bool"
        }
      ],
      "stateMutability": "view",
      "type": "function"
    },
    {
      "inputs": [
        {
          "internalType": "address",
          "name": "_token",
          "type": "address"
        },
        {
          "internalType": "address",
          "name": "_recipient",
          "type": "address"
        },
        {
          "internalType": "uint256",
          "name": "_nonce",
          "type": "uint256"
        },
        {
          "internalType": "uint256",
          "name": "_amount",
          "type": "uint256"
        },
        {
          "internalType": "string",
          "name": "_unlock_recipient",
          "type": "string"
        }
      ],
      "name": "transferTokens",
      "outputs": [],
      "stateMutability": "nonpayable",
      "type": "function"
    },
    {
      "inputs": [],
      "name": "unPause",
      "outputs": [],
      "stateMutability": "nonpayable",
      "type": "function"
    },
    {
      "inputs": [
        {
          "internalType": "address",
          "name": "newImplementation",
          "type": "address"
        }
      ],
      "name": "upgradeTo",
      "outputs": [],
      "stateMutability": "nonpayable",
      "type": "function"
    },
    {
      "inputs": [
        {
          "internalType": "address",
          "name": "newImplementation",
          "type": "address"
        },
        {
          "internalType": "bytes",
          "name": "data",
          "type": "bytes"
        }
      ],
      "name": "upgradeToAndCall",
      "outputs": [],
      "stateMutability": "payable",
      "type": "function"
    },
    {
      "inputs": [
        {
          "internalType": "address",
          "name": "",
          "type": "address"
        }
      ],
      "name": "whitelistedTokens",
      "outputs": [
        {
          "internalType": "bool",
          "name": "",
          "type": "bool"
        }
      ],
      "stateMutability": "view",
      "type": "function"
    },
    {
      "inputs": [
        {
          "internalType": "address",
          "name": "_token",
          "type": "address"
        }
      ],
      "name": "withdrawStuckTokens",
      "outputs": [],
      "stateMutability": "nonpayable",
      "type": "function"
    }
  ],
  "bytecode": "0x60a06040523060805234801561001457600080fd5b506080516122e261004c6000396000818161090a0152818161094a015281816109ea01528181610a2a0152610ab901526122e26000f3fe6080604052600436106101665760003560e01c80635c975abb116100d1578063c571967b1161008a578063d84c1b3811610064578063d84c1b381461045f578063d92978071461047f578063daf9c2101461049f578063f7b188a5146104d057600080fd5b8063c571967b146103ff578063cb9637281461041f578063d547741f1461043f57600080fd5b80635c975abb146103415780638456cb591461035957806386d295521461036e5780638a6df3821461039057806391d14854146103ca578063a217fddf146103ea57600080fd5b80632f2ff15d116101235780632f2ff15d14610299578063306275be146102b957806336568abe146102d95780633659cfe6146102f95780634f1ef2861461031957806352d1902d1461032c57600080fd5b806301ffc9a71461016b57806307d9c534146101a05780630cd99de8146101d15780631773528f146102135780631a46605e14610235578063248a9ca314610269575b600080fd5b34801561017757600080fd5b5061018b610186366004611b6f565b6104e5565b60405190151581526020015b60405180910390f35b3480156101ac57600080fd5b5061018b6101bb366004611b99565b61012e6020526000908152604090205460ff1681565b3480156101dd57600080fd5b506102057f1e1db0d9c63b4a23ec134ff71a2f56610c32f638cbff81e96e14734c4daf0b4d81565b604051908152602001610197565b34801561021f57600080fd5b5061023361022e366004611c6d565b61051c565b005b34801561024157600080fd5b506102057fc804e2aea55839c8bd1fe2c628730bd5ddeb93faf1add0fe7de81d2d3876f60c81565b34801561027557600080fd5b50610205610284366004611b99565b600090815260c9602052604090206001015490565b3480156102a557600080fd5b506102336102b4366004611cf3565b610783565b3480156102c557600080fd5b506102336102d4366004611d1f565b6107ad565b3480156102e557600080fd5b506102336102f4366004611cf3565b610881565b34801561030557600080fd5b50610233610314366004611d1f565b6108ff565b610233610327366004611d3a565b6109df565b34801561033857600080fd5b50610205610aac565b34801561034d57600080fd5b5060fb5460ff1661018b565b34801561036557600080fd5b50610233610b5f565b34801561037a57600080fd5b5061020560008051602061228f83398151915281565b34801561039c57600080fd5b5061018b6103ab366004611d1f565b6001600160a01b0316600090815261012d602052604090205460ff1690565b3480156103d657600080fd5b5061018b6103e5366004611cf3565b610b91565b3480156103f657600080fd5b50610205600081565b34801561040b57600080fd5b5061023361041a366004611e42565b610bbc565b34801561042b57600080fd5b5061023361043a366004611d1f565b610cdc565b34801561044b57600080fd5b5061023361045a366004611cf3565b610d68565b34801561046b57600080fd5b5061023361047a366004611d1f565b610d8d565b34801561048b57600080fd5b5061023361049a366004611e42565b610e64565b3480156104ab57600080fd5b5061018b6104ba366004611d1f565b61012d6020526000908152604090205460ff1681565b3480156104dc57600080fd5b50610233610fff565b60006001600160e01b03198216637965db0b60e01b148061051657506301ffc9a760e01b6001600160e01b03198316145b92915050565b610524611031565b6001600160a01b038516600090815261012d6020526040902054859060ff1661058d5760405162461bcd60e51b8152602060048201526016602482015275546f6b656e206e6f742077686974656c69737465642160501b60448201526064015b60405180910390fd5b6001600160a01b038516158015906105ae57506001600160a01b0385163314155b6105fa5760405162461bcd60e51b815260206004820152601860248201527f57726f6e6720726563697069656e742070726f766964656400000000000000006044820152606401610584565b8261063f5760405162461bcd60e51b815260206004820152601560248201527415dc9bdb99c8185b5bdd5b9d081c1c9bdd9a591959605a1b6044820152606401610584565b6040516bffffffffffffffffffffffff19606088811b8216602084015287901b1660348201526048810185905260688101849052869060009060880160408051601f198184030181529181528151602092830120600081815261012e90935291205490915060ff16156107095760405162461bcd60e51b815260206004820152602c60248201527f54686973207472616e73616374696f6e2068617320616c72656164792062656560448201526b6e2070726f6365737365642160a01b6064820152608401610584565b600081815261012e60205260409020805460ff191660011790556107386001600160a01b038316338988611079565b80867fed54b7aec45dbd5851e5b6484f6fbc0e5990e127a8f1eea7a1e113eba6bfacf9338b8b8a8a604051610771959493929190611f50565b60405180910390a35050505050505050565b600082815260c9602052604090206001015461079e816110ea565b6107a883836110f4565b505050565b60008051602061228f8339815191526107c5816110ea565b6001600160a01b038216600090815261012d602052604090205460ff166108275760405162461bcd60e51b8152602060048201526016602482015275546f6b656e206e6f742077686974656c69737465642160501b6044820152606401610584565b6001600160a01b038216600081815261012d6020908152604091829020805460ff1916905590519182527fd63a6c09205e963ed38724b08c22ff46ffa1f4146dbdba046f7430f7b778fa0291015b60405180910390a15050565b6001600160a01b03811633146108f15760405162461bcd60e51b815260206004820152602f60248201527f416363657373436f6e74726f6c3a2063616e206f6e6c792072656e6f756e636560448201526e103937b632b9903337b91039b2b63360891b6064820152608401610584565b6108fb828261117a565b5050565b306001600160a01b037f00000000000000000000000000000000000000000000000000000000000000001614156109485760405162461bcd60e51b815260040161058490611f96565b7f00000000000000000000000000000000000000000000000000000000000000006001600160a01b031661099160008051602061226f833981519152546001600160a01b031690565b6001600160a01b0316146109b75760405162461bcd60e51b815260040161058490611fe2565b6109c0816111e1565b604080516000808252602082019092526109dc918391906111ec565b50565b306001600160a01b037f0000000000000000000000000000000000000000000000000000000000000000161415610a285760405162461bcd60e51b815260040161058490611f96565b7f00000000000000000000000000000000000000000000000000000000000000006001600160a01b0316610a7160008051602061226f833981519152546001600160a01b031690565b6001600160a01b031614610a975760405162461bcd60e51b815260040161058490611fe2565b610aa0826111e1565b6108fb828260016111ec565b6000306001600160a01b037f00000000000000000000000000000000000000000000000000000000000000001614610b4c5760405162461bcd60e51b815260206004820152603860248201527f555550535570677261646561626c653a206d757374206e6f742062652063616c60448201527f6c6564207468726f7567682064656c656761746563616c6c00000000000000006064820152608401610584565b5060008051602061226f83398151915290565b7f1e1db0d9c63b4a23ec134ff71a2f56610c32f638cbff81e96e14734c4daf0b4d610b89816110ea565b6109dc611357565b600091825260c9602090815260408084206001600160a01b0393909316845291905290205460ff1690565b60008051602061228f833981519152610bd4816110ea565b8151835114610c1c5760405162461bcd60e51b8152602060048201526014602482015273105c9c985e5cc81b5d5cdd08189948195c5d585b60621b6044820152606401610584565b60005b8351811015610c9d57828181518110610c3a57610c3a61202e565b602002602001015161012d6000868481518110610c5957610c5961202e565b6020908102919091018101516001600160a01b03168252810191909152604001600020805460ff191691151591909117905580610c958161205a565b915050610c1f565b507f8569737c05ca3684284dc2d7a44ce0965e01af77b24e61bbd8df66413c4c33218383604051610ccf929190612075565b60405180910390a1505050565b6000610ce7816110ea565b6040516370a0823160e01b815230600482015282906107a89033906001600160a01b038416906370a0823190602401602060405180830381865afa158015610d33573d6000803e3d6000fd5b505050506040513d601f19601f82011682018060405250810190610d5791906120fb565b6001600160a01b03841691906113b1565b600082815260c96020526040902060010154610d83816110ea565b6107a8838361117a565b60008051602061228f833981519152610da5816110ea565b6001600160a01b038216600090815261012d602052604090205460ff1615610e0f5760405162461bcd60e51b815260206004820152601a60248201527f546f6b656e20616c72656164792077686974656c6973746564210000000000006044820152606401610584565b6001600160a01b038216600081815261012d6020908152604091829020805460ff1916600117905590519182527f2b1c15aae705d7cadc13bba9b1f7cd64654a4b66d5a06081f27ddeb1adb242459101610875565b600054610100900460ff1615808015610e845750600054600160ff909116105b80610e9e5750303b158015610e9e575060005460ff166001145b610f015760405162461bcd60e51b815260206004820152602e60248201527f496e697469616c697a61626c653a20636f6e747261637420697320616c72656160448201526d191e481a5b9a5d1a585b1a5e995960921b6064820152608401610584565b6000805460ff191660011790558015610f24576000805461ff0019166101001790555b610f2c6113e1565b610f34611410565b610f3c611410565b610f47600033611437565b610f5f60008051602061228f83398151915233611437565b610f897f1e1db0d9c63b4a23ec134ff71a2f56610c32f638cbff81e96e14734c4daf0b4d33611437565b610fb37fc804e2aea55839c8bd1fe2c628730bd5ddeb93faf1add0fe7de81d2d3876f60c33611437565b610fbd8383610bbc565b80156107a8576000805461ff0019169055604051600181527f7f26b83ff96e1f2b6a682f133852f6798a09c465da95921460cefb384740249890602001610ccf565b7fc804e2aea55839c8bd1fe2c628730bd5ddeb93faf1add0fe7de81d2d3876f60c611029816110ea565b6109dc611441565b60fb5460ff16156110775760405162461bcd60e51b815260206004820152601060248201526f14185d5cd8589b194e881c185d5cd95960821b6044820152606401610584565b565b6040516001600160a01b03808516602483015283166044820152606481018290526110e49085906323b872dd60e01b906084015b60408051601f198184030181529190526020810180516001600160e01b03166001600160e01b03199093169290921790915261147a565b50505050565b6109dc813361154c565b6110fe8282610b91565b6108fb57600082815260c9602090815260408083206001600160a01b03851684529091529020805460ff191660011790556111363390565b6001600160a01b0316816001600160a01b0316837f2f8788117e7eff1d82e926ec794901d17c78024a50270940304540a733656f0d60405160405180910390a45050565b6111848282610b91565b156108fb57600082815260c9602090815260408083206001600160a01b0385168085529252808320805460ff1916905551339285917ff6391f5c32d9c69d2a47ea670b442974b53935d1edc7fd64eb21e047a839171b9190a45050565b60006108fb816110ea565b7f4910fdfa16fed3260ed0e7147f7cc6da11a60208b5b9406d12a635614ffd91435460ff161561121f576107a8836115a5565b826001600160a01b03166352d1902d6040518163ffffffff1660e01b8152600401602060405180830381865afa925050508015611279575060408051601f3d908101601f19168201909252611276918101906120fb565b60015b6112dc5760405162461bcd60e51b815260206004820152602e60248201527f45524331393637557067726164653a206e657720696d706c656d656e7461746960448201526d6f6e206973206e6f74205555505360901b6064820152608401610584565b60008051602061226f833981519152811461134b5760405162461bcd60e51b815260206004820152602960248201527f45524331393637557067726164653a20756e737570706f727465642070726f786044820152681a58589b195555525160ba1b6064820152608401610584565b506107a8838383611641565b61135f611031565b60fb805460ff191660011790557f62e78cea01bee320cd4e420270b5ea74000d11b0c9f74754ebdbfc544b05a2586113943390565b6040516001600160a01b03909116815260200160405180910390a1565b6040516001600160a01b0383166024820152604481018290526107a890849063a9059cbb60e01b906064016110ad565b600054610100900460ff166114085760405162461bcd60e51b815260040161058490612114565b611077611666565b600054610100900460ff166110775760405162461bcd60e51b815260040161058490612114565b6108fb82826110f4565b611449611699565b60fb805460ff191690557f5db9ee0a495bf2e6ff9c91a7834c1ba4fdd244a5e8aa4e537bd38aeae4b073aa33611394565b60006114cf826040518060400160405280602081526020017f5361666545524332303a206c6f772d6c6576656c2063616c6c206661696c6564815250856001600160a01b03166116e29092919063ffffffff16565b8051909150156107a857808060200190518101906114ed919061215f565b6107a85760405162461bcd60e51b815260206004820152602a60248201527f5361666545524332303a204552433230206f7065726174696f6e20646964206e6044820152691bdd081cdd58d8d9595960b21b6064820152608401610584565b6115568282610b91565b6108fb57611563816116fb565b61156e83602061170d565b60405160200161157f92919061217c565b60408051601f198184030181529082905262461bcd60e51b8252610584916004016121f1565b6001600160a01b0381163b6116125760405162461bcd60e51b815260206004820152602d60248201527f455243313936373a206e657720696d706c656d656e746174696f6e206973206e60448201526c1bdd08184818dbdb9d1c9858dd609a1b6064820152608401610584565b60008051602061226f83398151915280546001600160a01b0319166001600160a01b0392909216919091179055565b61164a836118a9565b6000825111806116575750805b156107a8576110e483836118e9565b600054610100900460ff1661168d5760405162461bcd60e51b815260040161058490612114565b60fb805460ff19169055565b60fb5460ff166110775760405162461bcd60e51b815260206004820152601460248201527314185d5cd8589b194e881b9bdd081c185d5cd95960621b6044820152606401610584565b60606116f184846000856119dd565b90505b9392505050565b60606105166001600160a01b03831660145b6060600061171c836002612204565b611727906002612223565b67ffffffffffffffff81111561173f5761173f611bce565b6040519080825280601f01601f191660200182016040528015611769576020820181803683370190505b509050600360fc1b816000815181106117845761178461202e565b60200101906001600160f81b031916908160001a905350600f60fb1b816001815181106117b3576117b361202e565b60200101906001600160f81b031916908160001a90535060006117d7846002612204565b6117e2906001612223565b90505b600181111561185a576f181899199a1a9b1b9c1cb0b131b232b360811b85600f16601081106118165761181661202e565b1a60f81b82828151811061182c5761182c61202e565b60200101906001600160f81b031916908160001a90535060049490941c936118538161223b565b90506117e5565b5083156116f45760405162461bcd60e51b815260206004820181905260248201527f537472696e67733a20686578206c656e67746820696e73756666696369656e746044820152606401610584565b6118b2816115a5565b6040516001600160a01b038216907fbc7cd75a20ee27fd9adebab32041f755214dbc6bffa90cc0225b39da2e5c2d3b90600090a250565b60606001600160a01b0383163b6119515760405162461bcd60e51b815260206004820152602660248201527f416464726573733a2064656c65676174652063616c6c20746f206e6f6e2d636f6044820152651b9d1c9858dd60d21b6064820152608401610584565b600080846001600160a01b03168460405161196c9190612252565b600060405180830381855af49150503d80600081146119a7576040519150601f19603f3d011682016040523d82523d6000602084013e6119ac565b606091505b50915091506119d482826040518060600160405280602781526020016122af60279139611aba565b95945050505050565b606082471015611a3e5760405162461bcd60e51b815260206004820152602660248201527f416464726573733a20696e73756666696369656e742062616c616e636520666f6044820152651c8818d85b1b60d21b6064820152608401610584565b600080866001600160a01b03168587604051611a5a9190612252565b60006040518083038185875af1925050503d8060008114611a97576040519150601f19603f3d011682016040523d82523d6000602084013e611a9c565b606091505b5091509150611aad87838387611ad3565b925050505b949350505050565b60608315611ac95750816116f4565b6116f48383611b45565b60608315611b3f578251611b38576001600160a01b0385163b611b385760405162461bcd60e51b815260206004820152601d60248201527f416464726573733a2063616c6c20746f206e6f6e2d636f6e74726163740000006044820152606401610584565b5081611ab2565b611ab283835b815115611b555781518083602001fd5b8060405162461bcd60e51b815260040161058491906121f1565b600060208284031215611b8157600080fd5b81356001600160e01b0319811681146116f457600080fd5b600060208284031215611bab57600080fd5b5035919050565b80356001600160a01b0381168114611bc957600080fd5b919050565b634e487b7160e01b600052604160045260246000fd5b604051601f8201601f1916810167ffffffffffffffff81118282101715611c0d57611c0d611bce565b604052919050565b600067ffffffffffffffff831115611c2f57611c2f611bce565b611c42601f8401601f1916602001611be4565b9050828152838383011115611c5657600080fd5b828260208301376000602084830101529392505050565b600080600080600060a08688031215611c8557600080fd5b611c8e86611bb2565b9450611c9c60208701611bb2565b93506040860135925060608601359150608086013567ffffffffffffffff811115611cc657600080fd5b8601601f81018813611cd757600080fd5b611ce688823560208401611c15565b9150509295509295909350565b60008060408385031215611d0657600080fd5b82359150611d1660208401611bb2565b90509250929050565b600060208284031215611d3157600080fd5b6116f482611bb2565b60008060408385031215611d4d57600080fd5b611d5683611bb2565b9150602083013567ffffffffffffffff811115611d7257600080fd5b8301601f81018513611d8357600080fd5b611d9285823560208401611c15565b9150509250929050565b600067ffffffffffffffff821115611db657611db6611bce565b5060051b60200190565b80151581146109dc57600080fd5b600082601f830112611ddf57600080fd5b81356020611df4611def83611d9c565b611be4565b82815260059290921b84018101918181019086841115611e1357600080fd5b8286015b84811015611e37578035611e2a81611dc0565b8352918301918301611e17565b509695505050505050565b60008060408385031215611e5557600080fd5b823567ffffffffffffffff80821115611e6d57600080fd5b818501915085601f830112611e8157600080fd5b81356020611e91611def83611d9c565b82815260059290921b84018101918181019089841115611eb057600080fd5b948201945b83861015611ed557611ec686611bb2565b82529482019490820190611eb5565b96505086013592505080821115611eeb57600080fd5b50611d9285828601611dce565b60005b83811015611f13578181015183820152602001611efb565b838111156110e45750506000910152565b60008151808452611f3c816020860160208601611ef8565b601f01601f19169290920160200192915050565b6001600160a01b0386811682528581166020830152841660408201526060810183905260a060808201819052600090611f8b90830184611f24565b979650505050505050565b6020808252602c908201527f46756e6374696f6e206d7573742062652063616c6c6564207468726f7567682060408201526b19195b1959d85d1958d85b1b60a21b606082015260800190565b6020808252602c908201527f46756e6374696f6e206d7573742062652063616c6c6564207468726f7567682060408201526b6163746976652070726f787960a01b606082015260800190565b634e487b7160e01b600052603260045260246000fd5b634e487b7160e01b600052601160045260246000fd5b600060001982141561206e5761206e612044565b5060010190565b604080825283519082018190526000906020906060840190828701845b828110156120b75781516001600160a01b031684529284019290840190600101612092565b5050508381038285015284518082528583019183019060005b818110156120ee5783511515835292840192918401916001016120d0565b5090979650505050505050565b60006020828403121561210d57600080fd5b5051919050565b6020808252602b908201527f496e697469616c697a61626c653a20636f6e7472616374206973206e6f74206960408201526a6e697469616c697a696e6760a81b606082015260800190565b60006020828403121561217157600080fd5b81516116f481611dc0565b7f416363657373436f6e74726f6c3a206163636f756e74200000000000000000008152600083516121b4816017850160208801611ef8565b7001034b99036b4b9b9b4b733903937b6329607d1b60179184019182015283516121e5816028840160208801611ef8565b01602801949350505050565b6020815260006116f46020830184611f24565b600081600019048311821515161561221e5761221e612044565b500290565b6000821982111561223657612236612044565b500190565b60008161224a5761224a612044565b506000190190565b60008251612264818460208701611ef8565b919091019291505056fe360894a13ba1a3210667c828492db98dca3e2076cc3735a920a3ca505d382bbce692a7e096d848569909e66112558082d61f6eab73eb7d42b3328084547a0c86416464726573733a206c6f772d6c6576656c2064656c65676174652063616c6c206661696c6564a164736f6c634300080b000a",
  "linkReferences": {},
  "deployedLinkReferences": {}
}