{
  "_format": "hh-sol-artifact-1",
  "contractName": "EthErc20FastBridge",
  "sourceName": "contracts/EthErc20FastBridge.sol",
  "abi": [
    {
      "anonymous": false,
      "inputs": [
        {
          "indexed": false,
          "internalType": "address",
          "name": "token",
          "type": "address"
        }
      ],
      "name": "AddTokenToWhitelist",
      "type": "event"
    },
    {
      "anonymous": false,
      "inputs": [
        {
          "indexed": false,
          "internalType": "address",
          "name": "previousAdmin",
          "type": "address"
        },
        {
          "indexed": false,
          "internalType": "address",
          "name": "newAdmin",
          "type": "address"
        }
      ],
      "name": "AdminChanged",
      "type": "event"
    },
    {
      "anonymous": false,
      "inputs": [
        {
          "indexed": true,
          "internalType": "address",
          "name": "beacon",
          "type": "address"
        }
      ],
      "name": "BeaconUpgraded",
      "type": "event"
    },
    {
      "anonymous": false,
      "inputs": [
        {
          "indexed": false,
          "internalType": "uint8",
          "name": "version",
          "type": "uint8"
        }
      ],
      "name": "Initialized",
      "type": "event"
    },
    {
      "anonymous": false,
      "inputs": [
        {
          "indexed": false,
          "internalType": "address",
          "name": "account",
          "type": "address"
        }
      ],
      "name": "Paused",
      "type": "event"
    },
    {
      "anonymous": false,
      "inputs": [
        {
          "indexed": false,
          "internalType": "address",
          "name": "token",
          "type": "address"
        }
      ],
      "name": "RemoveTokenFromWhitelist",
      "type": "event"
    },
    {
      "anonymous": false,
      "inputs": [
        {
          "indexed": true,
          "internalType": "bytes32",
          "name": "role",
          "type": "bytes32"
        },
        {
          "indexed": true,
          "internalType": "bytes32",
          "name": "previousAdminRole",
          "type": "bytes32"
        },
        {
          "indexed": true,
          "internalType": "bytes32",
          "name": "newAdminRole",
          "type": "bytes32"
        }
      ],
      "name": "RoleAdminChanged",
      "type": "event"
    },
    {
      "anonymous": false,
      "inputs": [
        {
          "indexed": true,
          "internalType": "bytes32",
          "name": "role",
          "type": "bytes32"
        },
        {
          "indexed": true,
          "internalType": "address",
          "name": "account",
          "type": "address"
        },
        {
          "indexed": true,
          "internalType": "address",
          "name": "sender",
          "type": "address"
        }
      ],
      "name": "RoleGranted",
      "type": "event"
    },
    {
      "anonymous": false,
      "inputs": [
        {
          "indexed": true,
          "internalType": "bytes32",
          "name": "role",
          "type": "bytes32"
        },
        {
          "indexed": true,
          "internalType": "address",
          "name": "account",
          "type": "address"
        },
        {
          "indexed": true,
          "internalType": "address",
          "name": "sender",
          "type": "address"
        }
      ],
      "name": "RoleRevoked",
      "type": "event"
    },
    {
      "anonymous": false,
      "inputs": [
        {
          "indexed": false,
          "internalType": "address[]",
          "name": "_tokens",
          "type": "address[]"
        },
        {
          "indexed": false,
          "internalType": "bool[]",
          "name": "_states",
          "type": "bool[]"
        }
      ],
      "name": "SetTokens",
      "type": "event"
    },
    {
      "anonymous": false,
      "inputs": [
        {
          "indexed": true,
          "internalType": "uint256",
          "name": "_nonce",
          "type": "uint256"
        },
        {
          "indexed": false,
          "internalType": "address",
          "name": "_relayer",
          "type": "address"
        },
        {
          "indexed": false,
          "internalType": "address",
          "name": "_token",
          "type": "address"
        },
        {
          "indexed": false,
          "internalType": "address",
          "name": "_recipient",
          "type": "address"
        },
        {
          "indexed": false,
          "internalType": "uint256",
          "name": "_amount",
          "type": "uint256"
        },
        {
          "indexed": false,
          "internalType": "string",
          "name": "_unlock_recipient",
          "type": "string"
        },
        {
          "indexed": true,
          "internalType": "bytes32",
          "name": "_transfer_id",
          "type": "bytes32"
        }
      ],
      "name": "TransferTokens",
      "type": "event"
    },
    {
      "anonymous": false,
      "inputs": [
        {
          "indexed": false,
          "internalType": "address",
          "name": "account",
          "type": "address"
        }
      ],
      "name": "Unpaused",
      "type": "event"
    },
    {
      "anonymous": false,
      "inputs": [
        {
          "indexed": true,
          "internalType": "address",
          "name": "implementation",
          "type": "address"
        }
      ],
      "name": "Upgraded",
      "type": "event"
    },
    {
      "inputs": [],
      "name": "DEFAULT_ADMIN_ROLE",
      "outputs": [
        {
          "internalType": "bytes32",
          "name": "",
          "type": "bytes32"
        }
      ],
      "stateMutability": "view",
      "type": "function"
    },
    {
      "inputs": [],
      "name": "PAUSABLE_ADMIN_ROLE",
      "outputs": [
        {
          "internalType": "bytes32",
          "name": "",
          "type": "bytes32"
        }
      ],
      "stateMutability": "view",
      "type": "function"
    },
    {
      "inputs": [],
      "name": "UNPAUSABLE_ADMIN_ROLE",
      "outputs": [
        {
          "internalType": "bytes32",
          "name": "",
          "type": "bytes32"
        }
      ],
      "stateMutability": "view",
      "type": "function"
    },
    {
      "inputs": [],
      "name": "WHITELISTING_TOKENS_ADMIN_ROLE",
      "outputs": [
        {
          "internalType": "bytes32",
          "name": "",
          "type": "bytes32"
        }
      ],
      "stateMutability": "view",
      "type": "function"
    },
    {
      "inputs": [
        {
          "internalType": "address",
          "name": "_token",
          "type": "address"
        }
      ],
      "name": "addTokenToWhitelist",
      "outputs": [],
      "stateMutability": "nonpayable",
      "type": "function"
    },
    {
      "inputs": [
        {
          "internalType": "bytes32",
          "name": "role",
          "type": "bytes32"
        }
      ],
      "name": "getRoleAdmin",
      "outputs": [
        {
          "internalType": "bytes32",
          "name": "",
          "type": "bytes32"
        }
      ],
      "stateMutability": "view",
      "type": "function"
    },
    {
      "inputs": [
        {
          "internalType": "bytes32",
          "name": "role",
          "type": "bytes32"
        },
        {
          "internalType": "address",
          "name": "account",
          "type": "address"
        }
      ],
      "name": "grantRole",
      "outputs": [],
      "stateMutability": "nonpayable",
      "type": "function"
    },
    {
      "inputs": [
        {
          "internalType": "bytes32",
          "name": "role",
          "type": "bytes32"
        },
        {
          "internalType": "address",
          "name": "account",
          "type": "address"
        }
      ],
      "name": "hasRole",
      "outputs": [
        {
          "internalType": "bool",
          "name": "",
          "type": "bool"
        }
      ],
      "stateMutability": "view",
      "type": "function"
    },
    {
      "inputs": [
        {
          "internalType": "address[]",
          "name": "_tokens",
          "type": "address[]"
        },
        {
          "internalType": "bool[]",
          "name": "_states",
          "type": "bool[]"
        }
      ],
      "name": "initialize",
      "outputs": [],
      "stateMutability": "nonpayable",
      "type": "function"
    },
    {
      "inputs": [
        {
          "internalType": "address",
          "name": "_token",
          "type": "address"
        }
      ],
      "name": "isTokenInWhitelist",
      "outputs": [
        {
          "internalType": "bool",
          "name": "",
          "type": "bool"
        }
      ],
      "stateMutability": "view",
      "type": "function"
    },
    {
      "inputs": [],
      "name": "pause",
      "outputs": [],
      "stateMutability": "nonpayable",
      "type": "function"
    },
    {
      "inputs": [],
      "name": "paused",
      "outputs": [
        {
          "internalType": "bool",
          "name": "",
          "type": "bool"
        }
      ],
      "stateMutability": "view",
      "type": "function"
    },
    {
      "inputs": [
        {
          "internalType": "bytes32",
          "name": "",
          "type": "bytes32"
        }
      ],
      "name": "processedHashes",
      "outputs": [
        {
          "internalType": "bool",
          "name": "",
          "type": "bool"
        }
      ],
      "stateMutability": "view",
      "type": "function"
    },
    {
      "inputs": [],
      "name": "proxiableUUID",
      "outputs": [
        {
          "internalType": "bytes32",
          "name": "",
          "type": "bytes32"
        }
      ],
      "stateMutability": "view",
      "type": "function"
    },
    {
      "inputs": [
        {
          "internalType": "address",
          "name": "_token",
          "type": "address"
        }
      ],
      "name": "removeTokenFromWhitelist",
      "outputs": [],
      "stateMutability": "nonpayable",
      "type": "function"
    },
    {
      "inputs": [
        {
          "internalType": "bytes32",
          "name": "role",
          "type": "bytes32"
        },
        {
          "internalType": "address",
          "name": "account",
          "type": "address"
        }
      ],
      "name": "renounceRole",
      "outputs": [],
      "stateMutability": "nonpayable",
      "type": "function"
    },
    {
      "inputs": [
        {
          "internalType": "bytes32",
          "name": "role",
          "type": "bytes32"
        },
        {
          "internalType": "address",
          "name": "account",
          "type": "address"
        }
      ],
      "name": "revokeRole",
      "outputs": [],
      "stateMutability": "nonpayable",
      "type": "function"
    },
    {
      "inputs": [
        {
          "internalType": "address[]",
          "name": "_tokens",
          "type": "address[]"
        },
        {
          "internalType": "bool[]",
          "name": "_states",
          "type": "bool[]"
        }
      ],
      "name": "setWhitelistedTokens",
      "outputs": [],
      "stateMutability": "nonpayable",
      "type": "function"
    },
    {
      "inputs": [
        {
          "internalType": "bytes4",
          "name": "interfaceId",
          "type": "bytes4"
        }
      ],
      "name": "supportsInterface",
      "outputs": [
        {
          "internalType": "bool",
          "name": "",
          "type": "bool"
        }
      ],
      "stateMutability": "view",
      "type": "function"
    },
    {
      "inputs": [
        {
          "internalType": "address",
          "name": "_token",
          "type": "address"
        },
        {
          "internalType": "address payable",
          "name": "_recipient",
          "type": "address"
        },
        {
          "internalType": "uint256",
          "name": "_nonce",
          "type": "uint256"
        },
        {
          "internalType": "uint256",
          "name": "_amount",
          "type": "uint256"
        },
        {
          "internalType": "string",
          "name": "_unlock_recipient",
          "type": "string"
        }
      ],
      "name": "transferTokens",
      "outputs": [],
      "stateMutability": "payable",
      "type": "function"
    },
    {
      "inputs": [],
      "name": "unPause",
      "outputs": [],
      "stateMutability": "nonpayable",
      "type": "function"
    },
    {
      "inputs": [
        {
          "internalType": "address",
          "name": "newImplementation",
          "type": "address"
        }
      ],
      "name": "upgradeTo",
      "outputs": [],
      "stateMutability": "nonpayable",
      "type": "function"
    },
    {
      "inputs": [
        {
          "internalType": "address",
          "name": "newImplementation",
          "type": "address"
        },
        {
          "internalType": "bytes",
          "name": "data",
          "type": "bytes"
        }
      ],
      "name": "upgradeToAndCall",
      "outputs": [],
      "stateMutability": "payable",
      "type": "function"
    },
    {
      "inputs": [
        {
          "internalType": "address",
          "name": "",
          "type": "address"
        }
      ],
      "name": "whitelistedTokens",
      "outputs": [
        {
          "internalType": "bool",
          "name": "",
          "type": "bool"
        }
      ],
      "stateMutability": "view",
      "type": "function"
    },
    {
      "inputs": [
        {
          "internalType": "address",
          "name": "_token",
          "type": "address"
        }
      ],
      "name": "withdrawStuckTokens",
      "outputs": [],
      "stateMutability": "nonpayable",
      "type": "function"
    }
  ],
  "bytecode": "0x60a06040523060805234801561001457600080fd5b506080516123d461004c600039600081816109f501528181610a3501528181610ad501528181610b150152610ba401526123d46000f3fe6080604052600436106101665760003560e01c80635c975abb116100d1578063c571967b1161008a578063d84c1b3811610064578063d84c1b3814610452578063d929780714610472578063daf9c21014610492578063f7b188a5146104c357600080fd5b8063c571967b146103f2578063cb96372814610412578063d547741f1461043257600080fd5b80635c975abb146103345780638456cb591461034c57806386d29552146103615780638a6df3821461038357806391d14854146103bd578063a217fddf146103dd57600080fd5b80632f2ff15d116101235780632f2ff15d1461028c578063306275be146102ac57806336568abe146102cc5780633659cfe6146102ec5780634f1ef2861461030c57806352d1902d1461031f57600080fd5b806301ffc9a71461016b57806307d9c534146101a05780630cd99de8146101d15780631773528f146102135780631a46605e14610228578063248a9ca31461025c575b600080fd5b34801561017757600080fd5b5061018b610186366004611c5a565b6104d8565b60405190151581526020015b60405180910390f35b3480156101ac57600080fd5b5061018b6101bb366004611c84565b61012e6020526000908152604090205460ff1681565b3480156101dd57600080fd5b506102057f1e1db0d9c63b4a23ec134ff71a2f56610c32f638cbff81e96e14734c4daf0b4d81565b604051908152602001610197565b610226610221366004611d51565b61050f565b005b34801561023457600080fd5b506102057fc804e2aea55839c8bd1fe2c628730bd5ddeb93faf1add0fe7de81d2d3876f60c81565b34801561026857600080fd5b50610205610277366004611c84565b600090815260c9602052604090206001015490565b34801561029857600080fd5b506102266102a7366004611ddb565b61086e565b3480156102b857600080fd5b506102266102c7366004611e0b565b610898565b3480156102d857600080fd5b506102266102e7366004611ddb565b61096c565b3480156102f857600080fd5b50610226610307366004611e0b565b6109ea565b61022661031a366004611e28565b610aca565b34801561032b57600080fd5b50610205610b97565b34801561034057600080fd5b5060fb5460ff1661018b565b34801561035857600080fd5b50610226610c4a565b34801561036d57600080fd5b5061020560008051602061238183398151915281565b34801561038f57600080fd5b5061018b61039e366004611e0b565b6001600160a01b0316600090815261012d602052604090205460ff1690565b3480156103c957600080fd5b5061018b6103d8366004611ddb565b610c7c565b3480156103e957600080fd5b50610205600081565b3480156103fe57600080fd5b5061022661040d366004611f32565b610ca7565b34801561041e57600080fd5b5061022661042d366004611e0b565b610dc7565b34801561043e57600080fd5b5061022661044d366004611ddb565b610e53565b34801561045e57600080fd5b5061022661046d366004611e0b565b610e78565b34801561047e57600080fd5b5061022661048d366004611f32565b610f4f565b34801561049e57600080fd5b5061018b6104ad366004611e0b565b61012d6020526000908152604090205460ff1681565b3480156104cf57600080fd5b506102266110ea565b60006001600160e01b03198216637965db0b60e01b148061050957506301ffc9a760e01b6001600160e01b03198316145b92915050565b61051761111c565b6001600160a01b038516600090815261012d6020526040902054859060ff166105805760405162461bcd60e51b8152602060048201526016602482015275546f6b656e206e6f742077686974656c69737465642160501b60448201526064015b60405180910390fd5b6001600160a01b038516158015906105a157506001600160a01b0385163314155b6105ed5760405162461bcd60e51b815260206004820152601860248201527f57726f6e6720726563697069656e742070726f766964656400000000000000006044820152606401610577565b826106325760405162461bcd60e51b815260206004820152601560248201527415dc9bdb99c8185b5bdd5b9d081c1c9bdd9a591959605a1b6044820152606401610577565b6040516bffffffffffffffffffffffff19606088811b8216602084015287901b166034820152604881018590526068810184905260009060880160408051601f198184030181529181528151602092830120600081815261012e90935291205490915060ff16156106fa5760405162461bcd60e51b815260206004820152602c60248201527f54686973207472616e73616374696f6e2068617320616c72656164792062656560448201526b6e2070726f6365737365642160a01b6064820152608401610577565b600081815261012e60205260409020805460ff191660011790556001600160a01b0387166107ad573484146107715760405162461bcd60e51b815260206004820152601c60248201527f57726f6e672065746865727320616d6f756e742070726f7669646564000000006044820152606401610577565b6040516001600160a01b0387169085156108fc029086906000818181858888f193505050501580156107a7573d6000803e3d6000fd5b50610824565b341561080c5760405162461bcd60e51b815260206004820152602860248201527f457468657273206e6f7420616363657074656420666f72204552432d3230207460448201526772616e736665727360c01b6064820152608401610577565b866108226001600160a01b038216338988611164565b505b80857fed54b7aec45dbd5851e5b6484f6fbc0e5990e127a8f1eea7a1e113eba6bfacf9338a8a898960405161085d959493929190612042565b60405180910390a350505050505050565b600082815260c96020526040902060010154610889816111d5565b61089383836111df565b505050565b6000805160206123818339815191526108b0816111d5565b6001600160a01b038216600090815261012d602052604090205460ff166109125760405162461bcd60e51b8152602060048201526016602482015275546f6b656e206e6f742077686974656c69737465642160501b6044820152606401610577565b6001600160a01b038216600081815261012d6020908152604091829020805460ff1916905590519182527fd63a6c09205e963ed38724b08c22ff46ffa1f4146dbdba046f7430f7b778fa0291015b60405180910390a15050565b6001600160a01b03811633146109dc5760405162461bcd60e51b815260206004820152602f60248201527f416363657373436f6e74726f6c3a2063616e206f6e6c792072656e6f756e636560448201526e103937b632b9903337b91039b2b63360891b6064820152608401610577565b6109e68282611265565b5050565b306001600160a01b037f0000000000000000000000000000000000000000000000000000000000000000161415610a335760405162461bcd60e51b815260040161057790612088565b7f00000000000000000000000000000000000000000000000000000000000000006001600160a01b0316610a7c600080516020612361833981519152546001600160a01b031690565b6001600160a01b031614610aa25760405162461bcd60e51b8152600401610577906120d4565b610aab816112cc565b60408051600080825260208201909252610ac7918391906112d7565b50565b306001600160a01b037f0000000000000000000000000000000000000000000000000000000000000000161415610b135760405162461bcd60e51b815260040161057790612088565b7f00000000000000000000000000000000000000000000000000000000000000006001600160a01b0316610b5c600080516020612361833981519152546001600160a01b031690565b6001600160a01b031614610b825760405162461bcd60e51b8152600401610577906120d4565b610b8b826112cc565b6109e6828260016112d7565b6000306001600160a01b037f00000000000000000000000000000000000000000000000000000000000000001614610c375760405162461bcd60e51b815260206004820152603860248201527f555550535570677261646561626c653a206d757374206e6f742062652063616c60448201527f6c6564207468726f7567682064656c656761746563616c6c00000000000000006064820152608401610577565b5060008051602061236183398151915290565b7f1e1db0d9c63b4a23ec134ff71a2f56610c32f638cbff81e96e14734c4daf0b4d610c74816111d5565b610ac7611442565b600091825260c9602090815260408084206001600160a01b0393909316845291905290205460ff1690565b600080516020612381833981519152610cbf816111d5565b8151835114610d075760405162461bcd60e51b8152602060048201526014602482015273105c9c985e5cc81b5d5cdd08189948195c5d585b60621b6044820152606401610577565b60005b8351811015610d8857828181518110610d2557610d25612120565b602002602001015161012d6000868481518110610d4457610d44612120565b6020908102919091018101516001600160a01b03168252810191909152604001600020805460ff191691151591909117905580610d808161214c565b915050610d0a565b507f8569737c05ca3684284dc2d7a44ce0965e01af77b24e61bbd8df66413c4c33218383604051610dba929190612167565b60405180910390a1505050565b6000610dd2816111d5565b6040516370a0823160e01b815230600482015282906108939033906001600160a01b038416906370a0823190602401602060405180830381865afa158015610e1e573d6000803e3d6000fd5b505050506040513d601f19601f82011682018060405250810190610e4291906121ed565b6001600160a01b038416919061149c565b600082815260c96020526040902060010154610e6e816111d5565b6108938383611265565b600080516020612381833981519152610e90816111d5565b6001600160a01b038216600090815261012d602052604090205460ff1615610efa5760405162461bcd60e51b815260206004820152601a60248201527f546f6b656e20616c72656164792077686974656c6973746564210000000000006044820152606401610577565b6001600160a01b038216600081815261012d6020908152604091829020805460ff1916600117905590519182527f2b1c15aae705d7cadc13bba9b1f7cd64654a4b66d5a06081f27ddeb1adb242459101610960565b600054610100900460ff1615808015610f6f5750600054600160ff909116105b80610f895750303b158015610f89575060005460ff166001145b610fec5760405162461bcd60e51b815260206004820152602e60248201527f496e697469616c697a61626c653a20636f6e747261637420697320616c72656160448201526d191e481a5b9a5d1a585b1a5e995960921b6064820152608401610577565b6000805460ff19166001179055801561100f576000805461ff0019166101001790555b6110176114cc565b61101f6114fb565b6110276114fb565b611032600033611522565b61104a60008051602061238183398151915233611522565b6110747f1e1db0d9c63b4a23ec134ff71a2f56610c32f638cbff81e96e14734c4daf0b4d33611522565b61109e7fc804e2aea55839c8bd1fe2c628730bd5ddeb93faf1add0fe7de81d2d3876f60c33611522565b6110a88383610ca7565b8015610893576000805461ff0019169055604051600181527f7f26b83ff96e1f2b6a682f133852f6798a09c465da95921460cefb384740249890602001610dba565b7fc804e2aea55839c8bd1fe2c628730bd5ddeb93faf1add0fe7de81d2d3876f60c611114816111d5565b610ac761152c565b60fb5460ff16156111625760405162461bcd60e51b815260206004820152601060248201526f14185d5cd8589b194e881c185d5cd95960821b6044820152606401610577565b565b6040516001600160a01b03808516602483015283166044820152606481018290526111cf9085906323b872dd60e01b906084015b60408051601f198184030181529190526020810180516001600160e01b03166001600160e01b031990931692909217909152611565565b50505050565b610ac78133611637565b6111e98282610c7c565b6109e657600082815260c9602090815260408083206001600160a01b03851684529091529020805460ff191660011790556112213390565b6001600160a01b0316816001600160a01b0316837f2f8788117e7eff1d82e926ec794901d17c78024a50270940304540a733656f0d60405160405180910390a45050565b61126f8282610c7c565b156109e657600082815260c9602090815260408083206001600160a01b0385168085529252808320805460ff1916905551339285917ff6391f5c32d9c69d2a47ea670b442974b53935d1edc7fd64eb21e047a839171b9190a45050565b60006109e6816111d5565b7f4910fdfa16fed3260ed0e7147f7cc6da11a60208b5b9406d12a635614ffd91435460ff161561130a5761089383611690565b826001600160a01b03166352d1902d6040518163ffffffff1660e01b8152600401602060405180830381865afa925050508015611364575060408051601f3d908101601f19168201909252611361918101906121ed565b60015b6113c75760405162461bcd60e51b815260206004820152602e60248201527f45524331393637557067726164653a206e657720696d706c656d656e7461746960448201526d6f6e206973206e6f74205555505360901b6064820152608401610577565b60008051602061236183398151915281146114365760405162461bcd60e51b815260206004820152602960248201527f45524331393637557067726164653a20756e737570706f727465642070726f786044820152681a58589b195555525160ba1b6064820152608401610577565b5061089383838361172c565b61144a61111c565b60fb805460ff191660011790557f62e78cea01bee320cd4e420270b5ea74000d11b0c9f74754ebdbfc544b05a25861147f3390565b6040516001600160a01b03909116815260200160405180910390a1565b6040516001600160a01b03831660248201526044810182905261089390849063a9059cbb60e01b90606401611198565b600054610100900460ff166114f35760405162461bcd60e51b815260040161057790612206565b611162611751565b600054610100900460ff166111625760405162461bcd60e51b815260040161057790612206565b6109e682826111df565b611534611784565b60fb805460ff191690557f5db9ee0a495bf2e6ff9c91a7834c1ba4fdd244a5e8aa4e537bd38aeae4b073aa3361147f565b60006115ba826040518060400160405280602081526020017f5361666545524332303a206c6f772d6c6576656c2063616c6c206661696c6564815250856001600160a01b03166117cd9092919063ffffffff16565b80519091501561089357808060200190518101906115d89190612251565b6108935760405162461bcd60e51b815260206004820152602a60248201527f5361666545524332303a204552433230206f7065726174696f6e20646964206e6044820152691bdd081cdd58d8d9595960b21b6064820152608401610577565b6116418282610c7c565b6109e65761164e816117e6565b6116598360206117f8565b60405160200161166a92919061226e565b60408051601f198184030181529082905262461bcd60e51b8252610577916004016122e3565b6001600160a01b0381163b6116fd5760405162461bcd60e51b815260206004820152602d60248201527f455243313936373a206e657720696d706c656d656e746174696f6e206973206e60448201526c1bdd08184818dbdb9d1c9858dd609a1b6064820152608401610577565b60008051602061236183398151915280546001600160a01b0319166001600160a01b0392909216919091179055565b61173583611994565b6000825111806117425750805b15610893576111cf83836119d4565b600054610100900460ff166117785760405162461bcd60e51b815260040161057790612206565b60fb805460ff19169055565b60fb5460ff166111625760405162461bcd60e51b815260206004820152601460248201527314185d5cd8589b194e881b9bdd081c185d5cd95960621b6044820152606401610577565b60606117dc8484600085611ac8565b90505b9392505050565b60606105096001600160a01b03831660145b606060006118078360026122f6565b611812906002612315565b67ffffffffffffffff81111561182a5761182a611cb2565b6040519080825280601f01601f191660200182016040528015611854576020820181803683370190505b509050600360fc1b8160008151811061186f5761186f612120565b60200101906001600160f81b031916908160001a905350600f60fb1b8160018151811061189e5761189e612120565b60200101906001600160f81b031916908160001a90535060006118c28460026122f6565b6118cd906001612315565b90505b6001811115611945576f181899199a1a9b1b9c1cb0b131b232b360811b85600f166010811061190157611901612120565b1a60f81b82828151811061191757611917612120565b60200101906001600160f81b031916908160001a90535060049490941c9361193e8161232d565b90506118d0565b5083156117df5760405162461bcd60e51b815260206004820181905260248201527f537472696e67733a20686578206c656e67746820696e73756666696369656e746044820152606401610577565b61199d81611690565b6040516001600160a01b038216907fbc7cd75a20ee27fd9adebab32041f755214dbc6bffa90cc0225b39da2e5c2d3b90600090a250565b60606001600160a01b0383163b611a3c5760405162461bcd60e51b815260206004820152602660248201527f416464726573733a2064656c65676174652063616c6c20746f206e6f6e2d636f6044820152651b9d1c9858dd60d21b6064820152608401610577565b600080846001600160a01b031684604051611a579190612344565b600060405180830381855af49150503d8060008114611a92576040519150601f19603f3d011682016040523d82523d6000602084013e611a97565b606091505b5091509150611abf82826040518060600160405280602781526020016123a160279139611ba5565b95945050505050565b606082471015611b295760405162461bcd60e51b815260206004820152602660248201527f416464726573733a20696e73756666696369656e742062616c616e636520666f6044820152651c8818d85b1b60d21b6064820152608401610577565b600080866001600160a01b03168587604051611b459190612344565b60006040518083038185875af1925050503d8060008114611b82576040519150601f19603f3d011682016040523d82523d6000602084013e611b87565b606091505b5091509150611b9887838387611bbe565b925050505b949350505050565b60608315611bb45750816117df565b6117df8383611c30565b60608315611c2a578251611c23576001600160a01b0385163b611c235760405162461bcd60e51b815260206004820152601d60248201527f416464726573733a2063616c6c20746f206e6f6e2d636f6e74726163740000006044820152606401610577565b5081611b9d565b611b9d83835b815115611c405781518083602001fd5b8060405162461bcd60e51b815260040161057791906122e3565b600060208284031215611c6c57600080fd5b81356001600160e01b0319811681146117df57600080fd5b600060208284031215611c9657600080fd5b5035919050565b6001600160a01b0381168114610ac757600080fd5b634e487b7160e01b600052604160045260246000fd5b604051601f8201601f1916810167ffffffffffffffff81118282101715611cf157611cf1611cb2565b604052919050565b600067ffffffffffffffff831115611d1357611d13611cb2565b611d26601f8401601f1916602001611cc8565b9050828152838383011115611d3a57600080fd5b828260208301376000602084830101529392505050565b600080600080600060a08688031215611d6957600080fd5b8535611d7481611c9d565b94506020860135611d8481611c9d565b93506040860135925060608601359150608086013567ffffffffffffffff811115611dae57600080fd5b8601601f81018813611dbf57600080fd5b611dce88823560208401611cf9565b9150509295509295909350565b60008060408385031215611dee57600080fd5b823591506020830135611e0081611c9d565b809150509250929050565b600060208284031215611e1d57600080fd5b81356117df81611c9d565b60008060408385031215611e3b57600080fd5b8235611e4681611c9d565b9150602083013567ffffffffffffffff811115611e6257600080fd5b8301601f81018513611e7357600080fd5b611e8285823560208401611cf9565b9150509250929050565b600067ffffffffffffffff821115611ea657611ea6611cb2565b5060051b60200190565b8015158114610ac757600080fd5b600082601f830112611ecf57600080fd5b81356020611ee4611edf83611e8c565b611cc8565b82815260059290921b84018101918181019086841115611f0357600080fd5b8286015b84811015611f27578035611f1a81611eb0565b8352918301918301611f07565b509695505050505050565b60008060408385031215611f4557600080fd5b823567ffffffffffffffff80821115611f5d57600080fd5b818501915085601f830112611f7157600080fd5b81356020611f81611edf83611e8c565b82815260059290921b84018101918181019089841115611fa057600080fd5b948201945b83861015611fc7578535611fb881611c9d565b82529482019490820190611fa5565b96505086013592505080821115611fdd57600080fd5b50611e8285828601611ebe565b60005b83811015612005578181015183820152602001611fed565b838111156111cf5750506000910152565b6000815180845261202e816020860160208601611fea565b601f01601f19169290920160200192915050565b6001600160a01b0386811682528581166020830152841660408201526060810183905260a06080820181905260009061207d90830184612016565b979650505050505050565b6020808252602c908201527f46756e6374696f6e206d7573742062652063616c6c6564207468726f7567682060408201526b19195b1959d85d1958d85b1b60a21b606082015260800190565b6020808252602c908201527f46756e6374696f6e206d7573742062652063616c6c6564207468726f7567682060408201526b6163746976652070726f787960a01b606082015260800190565b634e487b7160e01b600052603260045260246000fd5b634e487b7160e01b600052601160045260246000fd5b600060001982141561216057612160612136565b5060010190565b604080825283519082018190526000906020906060840190828701845b828110156121a95781516001600160a01b031684529284019290840190600101612184565b5050508381038285015284518082528583019183019060005b818110156121e05783511515835292840192918401916001016121c2565b5090979650505050505050565b6000602082840312156121ff57600080fd5b5051919050565b6020808252602b908201527f496e697469616c697a61626c653a20636f6e7472616374206973206e6f74206960408201526a6e697469616c697a696e6760a81b606082015260800190565b60006020828403121561226357600080fd5b81516117df81611eb0565b7f416363657373436f6e74726f6c3a206163636f756e74200000000000000000008152600083516122a6816017850160208801611fea565b7001034b99036b4b9b9b4b733903937b6329607d1b60179184019182015283516122d7816028840160208801611fea565b01602801949350505050565b6020815260006117df6020830184612016565b600081600019048311821515161561231057612310612136565b500290565b6000821982111561232857612328612136565b500190565b60008161233c5761233c612136565b506000190190565b60008251612356818460208701611fea565b919091019291505056fe360894a13ba1a3210667c828492db98dca3e2076cc3735a920a3ca505d382bbce692a7e096d848569909e66112558082d61f6eab73eb7d42b3328084547a0c86416464726573733a206c6f772d6c6576656c2064656c65676174652063616c6c206661696c6564a164736f6c634300080b000a",
  "linkReferences": {},
  "deployedLinkReferences": {}
}